{
  "_format": "hh-sol-artifact-1",
  "contractName": "StakingRewards",
  "sourceName": "contracts/StakingRewards.sol",
  "abi": [
    {
      "inputs": [
        {
          "internalType": "address",
          "name": "_stakingToken",
          "type": "address"
        },
        {
          "internalType": "address",
          "name": "_rewardsToken",
          "type": "address"
        },
        {
          "internalType": "uint256",
          "name": "_rewardRate",
          "type": "uint256"
        }
      ],
      "stateMutability": "nonpayable",
      "type": "constructor"
    },
    {
      "inputs": [
        {
          "internalType": "address",
          "name": "owner",
          "type": "address"
        }
      ],
      "name": "OwnableInvalidOwner",
      "type": "error"
    },
    {
      "inputs": [
        {
          "internalType": "address",
          "name": "account",
          "type": "address"
        }
      ],
      "name": "OwnableUnauthorizedAccount",
      "type": "error"
    },
    {
      "inputs": [],
      "name": "ReentrancyGuardReentrantCall",
      "type": "error"
    },
    {
      "inputs": [
        {
          "internalType": "address",
          "name": "token",
          "type": "address"
        }
      ],
      "name": "SafeERC20FailedOperation",
      "type": "error"
    },
    {
      "anonymous": false,
      "inputs": [
        {
          "indexed": true,
          "internalType": "address",
          "name": "previousOwner",
          "type": "address"
        },
        {
          "indexed": true,
          "internalType": "address",
          "name": "newOwner",
          "type": "address"
        }
      ],
      "name": "OwnershipTransferred",
      "type": "event"
    },
    {
      "anonymous": false,
      "inputs": [
        {
          "indexed": true,
          "internalType": "address",
          "name": "user",
          "type": "address"
        },
        {
          "indexed": false,
          "internalType": "uint256",
          "name": "reward",
          "type": "uint256"
        }
      ],
      "name": "RewardPaid",
      "type": "event"
    },
    {
      "anonymous": false,
      "inputs": [
        {
          "indexed": false,
          "internalType": "uint256",
          "name": "newRate",
          "type": "uint256"
        }
      ],
      "name": "RewardRateUpdated",
      "type": "event"
    },
    {
      "anonymous": false,
      "inputs": [
        {
          "indexed": true,
          "internalType": "address",
          "name": "user",
          "type": "address"
        },
        {
          "indexed": false,
          "internalType": "uint256",
          "name": "amount",
          "type": "uint256"
        }
      ],
      "name": "Staked",
      "type": "event"
    },
    {
      "anonymous": false,
      "inputs": [
        {
          "indexed": true,
          "internalType": "address",
          "name": "user",
          "type": "address"
        },
        {
          "indexed": false,
          "internalType": "uint256",
          "name": "amount",
          "type": "uint256"
        }
      ],
      "name": "Withdrawn",
      "type": "event"
    },
    {
      "inputs": [
        {
          "internalType": "address",
          "name": "account",
          "type": "address"
        }
      ],
      "name": "earned",
      "outputs": [
        {
          "internalType": "uint256",
          "name": "",
          "type": "uint256"
        }
      ],
      "stateMutability": "view",
      "type": "function"
    },
    {
      "inputs": [],
      "name": "exit",
      "outputs": [],
      "stateMutability": "nonpayable",
      "type": "function"
    },
    {
      "inputs": [
        {
          "internalType": "address",
          "name": "account",
          "type": "address"
        }
      ],
      "name": "getAccountStatus",
      "outputs": [
        {
          "internalType": "uint256",
          "name": "balance",
          "type": "uint256"
        },
        {
          "internalType": "uint256",
          "name": "allowance",
          "type": "uint256"
        },
        {
          "internalType": "uint256",
          "name": "staked",
          "type": "uint256"
        }
      ],
      "stateMutability": "view",
      "type": "function"
    },
    {
      "inputs": [],
      "name": "getReward",
      "outputs": [],
      "stateMutability": "nonpayable",
      "type": "function"
    },
    {
      "inputs": [
        {
          "internalType": "address",
          "name": "account",
          "type": "address"
        }
      ],
      "name": "getStakingInfo",
      "outputs": [
        {
          "internalType": "uint256",
          "name": "staked",
          "type": "uint256"
        },
        {
          "internalType": "uint256",
          "name": "earnedRewards",
          "type": "uint256"
        },
        {
          "internalType": "uint256",
          "name": "totalStakedAmount",
          "type": "uint256"
        },
        {
          "internalType": "uint256",
          "name": "currentRewardRate",
          "type": "uint256"
        }
      ],
      "stateMutability": "view",
      "type": "function"
    },
    {
      "inputs": [],
      "name": "lastUpdateTime",
      "outputs": [
        {
          "internalType": "uint256",
          "name": "",
          "type": "uint256"
        }
      ],
      "stateMutability": "view",
      "type": "function"
    },
    {
      "inputs": [],
      "name": "owner",
      "outputs": [
        {
          "internalType": "address",
          "name": "",
          "type": "address"
        }
      ],
      "stateMutability": "view",
      "type": "function"
    },
    {
      "inputs": [],
      "name": "renounceOwnership",
      "outputs": [],
      "stateMutability": "nonpayable",
      "type": "function"
    },
    {
      "inputs": [],
      "name": "rewardPerToken",
      "outputs": [
        {
          "internalType": "uint256",
          "name": "",
          "type": "uint256"
        }
      ],
      "stateMutability": "view",
      "type": "function"
    },
    {
      "inputs": [],
      "name": "rewardPerTokenStored",
      "outputs": [
        {
          "internalType": "uint256",
          "name": "",
          "type": "uint256"
        }
      ],
      "stateMutability": "view",
      "type": "function"
    },
    {
      "inputs": [],
      "name": "rewardRate",
      "outputs": [
        {
          "internalType": "uint256",
          "name": "",
          "type": "uint256"
        }
      ],
      "stateMutability": "view",
      "type": "function"
    },
    {
      "inputs": [
        {
          "internalType": "address",
          "name": "",
          "type": "address"
        }
      ],
      "name": "rewards",
      "outputs": [
        {
          "internalType": "uint256",
          "name": "",
          "type": "uint256"
        }
      ],
      "stateMutability": "view",
      "type": "function"
    },
    {
      "inputs": [],
      "name": "rewardsToken",
      "outputs": [
        {
          "internalType": "contract IERC20",
          "name": "",
          "type": "address"
        }
      ],
      "stateMutability": "view",
      "type": "function"
    },
    {
      "inputs": [
        {
          "internalType": "uint256",
          "name": "_rewardRate",
          "type": "uint256"
        }
      ],
      "name": "setRewardRate",
      "outputs": [],
      "stateMutability": "nonpayable",
      "type": "function"
    },
    {
      "inputs": [
        {
          "internalType": "uint256",
          "name": "amount",
          "type": "uint256"
        }
      ],
      "name": "stake",
      "outputs": [],
      "stateMutability": "nonpayable",
      "type": "function"
    },
    {
      "inputs": [
        {
          "internalType": "address",
          "name": "",
          "type": "address"
        }
      ],
      "name": "stakedBalance",
      "outputs": [
        {
          "internalType": "uint256",
          "name": "",
          "type": "uint256"
        }
      ],
      "stateMutability": "view",
      "type": "function"
    },
    {
      "inputs": [],
      "name": "stakingToken",
      "outputs": [
        {
          "internalType": "contract IERC20",
          "name": "",
          "type": "address"
        }
      ],
      "stateMutability": "view",
      "type": "function"
    },
    {
      "inputs": [],
      "name": "totalStaked",
      "outputs": [
        {
          "internalType": "uint256",
          "name": "",
          "type": "uint256"
        }
      ],
      "stateMutability": "view",
      "type": "function"
    },
    {
      "inputs": [
        {
          "internalType": "address",
          "name": "newOwner",
          "type": "address"
        }
      ],
      "name": "transferOwnership",
      "outputs": [],
      "stateMutability": "nonpayable",
      "type": "function"
    },
    {
      "inputs": [
        {
          "internalType": "address",
          "name": "",
          "type": "address"
        }
      ],
      "name": "userRewardPerTokenPaid",
      "outputs": [
        {
          "internalType": "uint256",
          "name": "",
          "type": "uint256"
        }
      ],
      "stateMutability": "view",
      "type": "function"
    },
    {
      "inputs": [
        {
          "internalType": "uint256",
          "name": "amount",
          "type": "uint256"
        }
      ],
      "name": "withdraw",
      "outputs": [],
      "stateMutability": "nonpayable",
      "type": "function"
    }
  ],
  "bytecode": "0x608060405234801561001057600080fd5b50604051610f48380380610f4883398101604081905261002f9161010b565b338061005557604051631e4fbdf760e01b81526000600482015260240160405180910390fd5b61005e8161009f565b5060018055600280546001600160a01b039485166001600160a01b031991821617909155600380549390941692169190911790915560045542600555610147565b600080546001600160a01b038381166001600160a01b0319831681178455604051919092169283917f8be0079c531659141344cd1fd0a4f28419497f9722a3daafe3b4186f6b6457e09190a35050565b80516001600160a01b038116811461010657600080fd5b919050565b60008060006060848603121561012057600080fd5b610129846100ef565b9250610137602085016100ef565b9150604084015190509250925092565b610df2806101566000396000f3fe608060405234801561001057600080fd5b50600436106101365760003560e01c80638da5cb5b116100b8578063cd3daf9d1161007c578063cd3daf9d14610296578063d1af0c7d1461029e578063df136d65146102b1578063e9fad8ee146102ba578063f2fde38b146102c2578063fd4fa05a146102d557600080fd5b80638da5cb5b146102235780639e447fc614610234578063a694fc3a14610247578063aa4704f31461025a578063c8f33c911461028d57600080fd5b8063715018a6116100ff578063715018a6146101be57806372f702f3146101c65780637b0a47ee146101f1578063817b1cd2146101fa5780638b8763471461020357600080fd5b80628cc2621461013b5780630700037d146101615780632e1a7d4d146101815780633d18b91214610196578063602172671461019e575b600080fd5b61014e610149366004610ce5565b610303565b6040519081526020015b60405180910390f35b61014e61016f366004610ce5565b600a6020526000908152604090205481565b61019461018f366004610d15565b610380565b005b610194610510565b61014e6101ac366004610ce5565b60086020526000908152604090205481565b6101946105ee565b6002546101d9906001600160a01b031681565b6040516001600160a01b039091168152602001610158565b61014e60045481565b61014e60075481565b61014e610211366004610ce5565b60096020526000908152604090205481565b6000546001600160a01b03166101d9565b610194610242366004610d15565b610600565b610194610255366004610d15565b610699565b61026d610268366004610ce5565b610925565b604080519485526020850193909352918301526060820152608001610158565b61014e60055481565b61014e610962565b6003546101d9906001600160a01b031681565b61014e60065481565b6101946109c0565b6101946102d0366004610ce5565b6109e1565b6102e86102e3366004610ce5565b610a1c565b60408051938452602084019290925290820152606001610158565b6001600160a01b0381166000908152600a60209081526040808320546009909252822054670de0b6b3a764000090610339610962565b6103439190610d44565b6001600160a01b0385166000908152600860205260409020546103669190610d57565b6103709190610d6e565b61037a9190610d90565b92915050565b610388610b2a565b33610391610962565b600655426005556001600160a01b038116156103dc576103b081610303565b6001600160a01b0382166000908152600a60209081526040808320939093556006546009909152919020555b600082116104255760405162461bcd60e51b8152602060048201526011602482015270043616e6e6f74207769746864726177203607c1b60448201526064015b60405180910390fd5b3360009081526008602052604090205482111561047b5760405162461bcd60e51b8152602060048201526014602482015273496e73756666696369656e742062616c616e636560601b604482015260640161041c565b816007600082825461048d9190610d44565b909155505033600090815260086020526040812080548492906104b1908490610d44565b90915550506002546104cd906001600160a01b03163384610b54565b60405182815233907f7084f5476618d8e60b11ef0d7d3f06914655adb8793e28ff7f018d4c76d505d5906020015b60405180910390a25061050d60018055565b50565b610518610b2a565b33610521610962565b600655426005556001600160a01b0381161561056c5761054081610303565b6001600160a01b0382166000908152600a60209081526040808320939093556006546009909152919020555b336000908152600a602052604090205480156105e157336000818152600a60205260408120556003546105ab916001600160a01b039091169083610b54565b60405181815233907fe2403640ba68fed3a2f88b7557551d1993f84b99bb10ff833f0cf8db0c5e04869060200160405180910390a25b50506105ec60018055565b565b6105f6610bb8565b6105ec6000610be5565b610608610bb8565b6000610612610962565b600655426005556001600160a01b0381161561065d5761063181610303565b6001600160a01b0382166000908152600a60209081526040808320939093556006546009909152919020555b60048290556040518281527f41d466ebd06fb97e7786086ac8b69b7eb7da798592036251291d34e9791cde019060200160405180910390a15050565b6106a1610b2a565b336106aa610962565b600655426005556001600160a01b038116156106f5576106c981610303565b6001600160a01b0382166000908152600a60209081526040808320939093556006546009909152919020555b600082116107365760405162461bcd60e51b815260206004820152600e60248201526d043616e6e6f74207374616b6520360941b604482015260640161041c565b600254604051636eb1769f60e11b815233600482015230602482015283916001600160a01b03169063dd62ed3e90604401602060405180830381865afa158015610784573d6000803e3d6000fd5b505050506040513d601f19601f820116820180604052508101906107a89190610da3565b10156107ef5760405162461bcd60e51b8152602060048201526016602482015275496e73756666696369656e7420616c6c6f77616e636560501b604482015260640161041c565b6002546040516370a0823160e01b815233600482015283916001600160a01b0316906370a0823190602401602060405180830381865afa158015610837573d6000803e3d6000fd5b505050506040513d601f19601f8201168201806040525081019061085b9190610da3565b10156108a05760405162461bcd60e51b8152602060048201526014602482015273496e73756666696369656e742062616c616e636560601b604482015260640161041c565b81600760008282546108b29190610d90565b909155505033600090815260086020526040812080548492906108d6908490610d90565b90915550506002546108f3906001600160a01b0316333085610c35565b60405182815233907f9e71bc8eea02a63969f509818f2dafb9254532904319f9dbda79b67bd34a5f3d906020016104fb565b6001600160a01b03811660009081526008602052604081205481908190819061094d86610303565b60075460045493509350935093509193509193565b6000600754600003610975575060065490565b6007546004546005546109889042610d44565b6109929190610d57565b6109a490670de0b6b3a7640000610d57565b6109ae9190610d6e565b6006546109bb9190610d90565b905090565b336000908152600860205260409020546109d990610380565b6105ec610510565b6109e9610bb8565b6001600160a01b038116610a1357604051631e4fbdf760e01b81526000600482015260240161041c565b61050d81610be5565b6002546040516370a0823160e01b81526001600160a01b03838116600483015260009283928392909116906370a0823190602401602060405180830381865afa158015610a6d573d6000803e3d6000fd5b505050506040513d601f19601f82011682018060405250810190610a919190610da3565b600254604051636eb1769f60e11b81526001600160a01b0387811660048301523060248301529091169063dd62ed3e90604401602060405180830381865afa158015610ae1573d6000803e3d6000fd5b505050506040513d601f19601f82011682018060405250810190610b059190610da3565b6001600160a01b03959095166000908152600860205260409020549095909350915050565b600260015403610b4d57604051633ee5aeb560e01b815260040160405180910390fd5b6002600155565b6040516001600160a01b03838116602483015260448201839052610bb391859182169063a9059cbb906064015b604051602081830303815290604052915060e01b6020820180516001600160e01b038381831617835250505050610c74565b505050565b6000546001600160a01b031633146105ec5760405163118cdaa760e01b815233600482015260240161041c565b600080546001600160a01b038381166001600160a01b0319831681178455604051919092169283917f8be0079c531659141344cd1fd0a4f28419497f9722a3daafe3b4186f6b6457e09190a35050565b6040516001600160a01b038481166024830152838116604483015260648201839052610c6e9186918216906323b872dd90608401610b81565b50505050565b600080602060008451602086016000885af180610c97576040513d6000823e3d81fd5b50506000513d91508115610caf578060011415610cbc565b6001600160a01b0384163b155b15610c6e57604051635274afe760e01b81526001600160a01b038516600482015260240161041c565b600060208284031215610cf757600080fd5b81356001600160a01b0381168114610d0e57600080fd5b9392505050565b600060208284031215610d2757600080fd5b5035919050565b634e487b7160e01b600052601160045260246000fd5b8181038181111561037a5761037a610d2e565b808202811582820484141761037a5761037a610d2e565b600082610d8b57634e487b7160e01b600052601260045260246000fd5b500490565b8082018082111561037a5761037a610d2e565b600060208284031215610db557600080fd5b505191905056fea264697066735822122022a3034e5018637608ff7940ac461940bffa17ea1db17d8d768f80a2ff45b57264736f6c63430008140033",
  "linkReferences": {},
  "deployedLinkReferences": {}
}