{
  "_format": "hh-sol-artifact-1",
  "contractName": "StakingFactory",
  "sourceName": "contracts/StakingFactory.sol",
  "abi": [
    {
      "anonymous": false,
      "inputs": [
        {
          "indexed": true,
          "internalType": "address",
          "name": "creator",
          "type": "address"
        },
        {
          "indexed": true,
          "internalType": "address",
          "name": "stakingContract",
          "type": "address"
        },
        {
          "indexed": false,
          "internalType": "address",
          "name": "stakingToken",
          "type": "address"
        },
        {
          "indexed": false,
          "internalType": "address",
          "name": "rewardsToken",
          "type": "address"
        },
        {
          "indexed": false,
          "internalType": "uint256",
          "name": "rewardRate",
          "type": "uint256"
        }
      ],
      "name": "StakingPoolCreated",
      "type": "event"
    },
    {
      "anonymous": false,
      "inputs": [
        {
          "indexed": true,
          "internalType": "address",
          "name": "creator",
          "type": "address"
        },
        {
          "indexed": true,
          "internalType": "address",
          "name": "tokenAddress",
          "type": "address"
        },
        {
          "indexed": false,
          "internalType": "string",
          "name": "name",
          "type": "string"
        },
        {
          "indexed": false,
          "internalType": "string",
          "name": "symbol",
          "type": "string"
        }
      ],
      "name": "TokenDeployed",
      "type": "event"
    },
    {
      "inputs": [
        {
          "internalType": "address",
          "name": "_stakingToken",
          "type": "address"
        },
        {
          "internalType": "address",
          "name": "_rewardsToken",
          "type": "address"
        },
        {
          "internalType": "uint256",
          "name": "_rewardRate",
          "type": "uint256"
        }
      ],
      "name": "createStakingPool",
      "outputs": [
        {
          "internalType": "address",
          "name": "",
          "type": "address"
        }
      ],
      "stateMutability": "nonpayable",
      "type": "function"
    },
    {
      "inputs": [
        {
          "internalType": "string",
          "name": "name",
          "type": "string"
        },
        {
          "internalType": "string",
          "name": "symbol",
          "type": "string"
        },
        {
          "internalType": "uint256",
          "name": "initialSupply",
          "type": "uint256"
        }
      ],
      "name": "deployToken",
      "outputs": [
        {
          "internalType": "address",
          "name": "",
          "type": "address"
        }
      ],
      "stateMutability": "nonpayable",
      "type": "function"
    },
    {
      "inputs": [],
      "name": "getPoolCount",
      "outputs": [
        {
          "internalType": "uint256",
          "name": "",
          "type": "uint256"
        }
      ],
      "stateMutability": "view",
      "type": "function"
    },
    {
      "inputs": [
        {
          "internalType": "uint256",
          "name": "index",
          "type": "uint256"
        }
      ],
      "name": "getPoolInfo",
      "outputs": [
        {
          "internalType": "address",
          "name": "stakingContract",
          "type": "address"
        },
        {
          "internalType": "address",
          "name": "stakingToken",
          "type": "address"
        },
        {
          "internalType": "address",
          "name": "rewardsToken",
          "type": "address"
        },
        {
          "internalType": "address",
          "name": "creator",
          "type": "address"
        },
        {
          "internalType": "uint256",
          "name": "createdAt",
          "type": "uint256"
        }
      ],
      "stateMutability": "view",
      "type": "function"
    },
    {
      "inputs": [
        {
          "internalType": "address",
          "name": "user",
          "type": "address"
        }
      ],
      "name": "getUserPools",
      "outputs": [
        {
          "internalType": "address[]",
          "name": "",
          "type": "address[]"
        }
      ],
      "stateMutability": "view",
      "type": "function"
    },
    {
      "inputs": [
        {
          "internalType": "uint256",
          "name": "",
          "type": "uint256"
        }
      ],
      "name": "stakingPools",
      "outputs": [
        {
          "internalType": "address",
          "name": "stakingContract",
          "type": "address"
        },
        {
          "internalType": "address",
          "name": "stakingToken",
          "type": "address"
        },
        {
          "internalType": "address",
          "name": "rewardsToken",
          "type": "address"
        },
        {
          "internalType": "address",
          "name": "creator",
          "type": "address"
        },
        {
          "internalType": "uint256",
          "name": "createdAt",
          "type": "uint256"
        }
      ],
      "stateMutability": "view",
      "type": "function"
    },
    {
      "inputs": [
        {
          "internalType": "address",
          "name": "",
          "type": "address"
        },
        {
          "internalType": "uint256",
          "name": "",
          "type": "uint256"
        }
      ],
      "name": "userPools",
      "outputs": [
        {
          "internalType": "address",
          "name": "",
          "type": "address"
        }
      ],
      "stateMutability": "view",
      "type": "function"
    }
  ],
  "bytecode": "0x608060405234801561001057600080fd5b50612a46806100206000396000f3fe60806040523480156200001157600080fd5b5060043610620000875760003560e01c80633a93babb11620000625780633a93babb146200012a5780635aad6cf014620001415780638eec5d7014620001585780639816af58146200016a57600080fd5b8063088daa9e146200008c5780631064aa5514620000c05780632f380b3514620000d7575b600080fd5b620000a36200009d36600462000813565b62000190565b6040516001600160a01b0390911681526020015b60405180910390f35b620000a3620000d136600462000854565b62000508565b620000ee620000e836600462000881565b62000541565b604080516001600160a01b0396871681529486166020860152928516928401929092529092166060820152608081019190915260a001620000b7565b620000a36200013b36600462000946565b6200061b565b620000ee6200015236600462000881565b62000710565b600054604051908152602001620000b7565b620001816200017b366004620009ba565b62000762565b604051620000b79190620009df565b60006001600160a01b038416620001e65760405162461bcd60e51b815260206004820152601560248201527424b73b30b634b21039ba30b5b4b733903a37b5b2b760591b60448201526064015b60405180910390fd5b6001600160a01b038316620002365760405162461bcd60e51b815260206004820152601560248201527424b73b30b634b2103932bbb0b93239903a37b5b2b760591b6044820152606401620001dd565b60008211620002885760405162461bcd60e51b815260206004820152601760248201527f5265776172642072617465206d757374206265203e20300000000000000000006044820152606401620001dd565b60008484846040516200029b90620007da565b6001600160a01b0393841681529290911660208301526040820152606001604051809103906000f080158015620002d6573d6000803e3d6000fd5b5060405163f2fde38b60e01b81523360048201529091506001600160a01b0382169063f2fde38b90602401600060405180830381600087803b1580156200031c57600080fd5b505af115801562000331573d6000803e3d6000fd5b50506040805160a0810182526001600160a01b038086168083528a821660208085019182528b84168587019081523360608701818152426080890190815260008054600181810183558280528b5160059092027f290decd9548b62a8d60345a988386fc84ba6bc95484008f6362f93160ef3e56381018054938d166001600160a01b031994851617905598517f290decd9548b62a8d60345a988386fc84ba6bc95484008f6362f93160ef3e5648a018054918d1691841691909117905595517f290decd9548b62a8d60345a988386fc84ba6bc95484008f6362f93160ef3e56589018054918c1691831691909117905592517f290decd9548b62a8d60345a988386fc84ba6bc95484008f6362f93160ef3e5668801805491909a1690841617909855517f290decd9548b62a8d60345a988386fc84ba6bc95484008f6362f93160ef3e567909501949094558086528183528786208054928301815586529190942090930180549091168217905592519194509192507fae81c6311dd7b3f3ff760c436ac7f43a934509c027032f30562c99f38873811090620004f7908a908a908a906001600160a01b039384168152919092166020820152604081019190915260600190565b60405180910390a350949350505050565b600160205281600052604060002081815481106200052557600080fd5b6000918252602090912001546001600160a01b03169150829050565b6000806000806000808054905086106200058e5760405162461bcd60e51b815260206004820152600d60248201526c092dcecc2d8d2c840d2dcc8caf609b1b6044820152606401620001dd565b6000808781548110620005a557620005a562000a2e565b60009182526020918290206040805160a08101825260059390930290910180546001600160a01b03908116808552600183015482169585018690526002830154821693850184905260038301549091166060850181905260049092015460809094018490529b939a509098509650945092505050565b6000808484846040516200062f90620007e8565b6200063d9392919062000a8c565b604051809103906000f0801580156200065a573d6000803e3d6000fd5b5060405163f2fde38b60e01b81523360048201529091506001600160a01b0382169063f2fde38b90602401600060405180830381600087803b158015620006a057600080fd5b505af1158015620006b5573d6000803e3d6000fd5b50505050806001600160a01b0316336001600160a01b03167f801b50b59a9c797b08c62fe4c8bee1aff31ff3246d488e359cedfc8e75ffd05f87876040516200070092919062000ac6565b60405180910390a3949350505050565b600081815481106200072157600080fd5b6000918252602090912060059091020180546001820154600283015460038401546004909401546001600160a01b0393841695509183169390831692169085565b6001600160a01b038116600090815260016020908152604091829020805483518184028101840190945280845260609392830182828015620007ce57602002820191906000526020600020905b81546001600160a01b03168152600190910190602001808311620007af575b50505050509050919050565b610f488062000af983390190565b610fd08062001a4183390190565b80356001600160a01b03811681146200080e57600080fd5b919050565b6000806000606084860312156200082957600080fd5b6200083484620007f6565b92506200084460208501620007f6565b9150604084013590509250925092565b600080604083850312156200086857600080fd5b6200087383620007f6565b946020939093013593505050565b6000602082840312156200089457600080fd5b5035919050565b634e487b7160e01b600052604160045260246000fd5b600082601f830112620008c357600080fd5b813567ffffffffffffffff80821115620008e157620008e16200089b565b604051601f8301601f19908116603f011681019082821181831017156200090c576200090c6200089b565b816040528381528660208588010111156200092657600080fd5b836020870160208301376000602085830101528094505050505092915050565b6000806000606084860312156200095c57600080fd5b833567ffffffffffffffff808211156200097557600080fd5b6200098387838801620008b1565b945060208601359150808211156200099a57600080fd5b50620009a986828701620008b1565b925050604084013590509250925092565b600060208284031215620009cd57600080fd5b620009d882620007f6565b9392505050565b6020808252825182820181905260009190848201906040850190845b8181101562000a225783516001600160a01b031683529284019291840191600101620009fb565b50909695505050505050565b634e487b7160e01b600052603260045260246000fd5b6000815180845260005b8181101562000a6c5760208185018101518683018201520162000a4e565b506000602082860101526020601f19601f83011685010191505092915050565b60608152600062000aa1606083018662000a44565b828103602084015262000ab5818662000a44565b915050826040830152949350505050565b60408152600062000adb604083018562000a44565b828103602084015262000aef818562000a44565b9594505050505056fe608060405234801561001057600080fd5b50604051610f48380380610f4883398101604081905261002f9161010b565b338061005557604051631e4fbdf760e01b81526000600482015260240160405180910390fd5b61005e8161009f565b5060018055600280546001600160a01b039485166001600160a01b031991821617909155600380549390941692169190911790915560045542600555610147565b600080546001600160a01b038381166001600160a01b0319831681178455604051919092169283917f8be0079c531659141344cd1fd0a4f28419497f9722a3daafe3b4186f6b6457e09190a35050565b80516001600160a01b038116811461010657600080fd5b919050565b60008060006060848603121561012057600080fd5b610129846100ef565b9250610137602085016100ef565b9150604084015190509250925092565b610df2806101566000396000f3fe608060405234801561001057600080fd5b50600436106101365760003560e01c80638da5cb5b116100b8578063cd3daf9d1161007c578063cd3daf9d14610296578063d1af0c7d1461029e578063df136d65146102b1578063e9fad8ee146102ba578063f2fde38b146102c2578063fd4fa05a146102d557600080fd5b80638da5cb5b146102235780639e447fc614610234578063a694fc3a14610247578063aa4704f31461025a578063c8f33c911461028d57600080fd5b8063715018a6116100ff578063715018a6146101be57806372f702f3146101c65780637b0a47ee146101f1578063817b1cd2146101fa5780638b8763471461020357600080fd5b80628cc2621461013b5780630700037d146101615780632e1a7d4d146101815780633d18b91214610196578063602172671461019e575b600080fd5b61014e610149366004610ce5565b610303565b6040519081526020015b60405180910390f35b61014e61016f366004610ce5565b600a6020526000908152604090205481565b61019461018f366004610d15565b610380565b005b610194610510565b61014e6101ac366004610ce5565b60086020526000908152604090205481565b6101946105ee565b6002546101d9906001600160a01b031681565b6040516001600160a01b039091168152602001610158565b61014e60045481565b61014e60075481565b61014e610211366004610ce5565b60096020526000908152604090205481565b6000546001600160a01b03166101d9565b610194610242366004610d15565b610600565b610194610255366004610d15565b610699565b61026d610268366004610ce5565b610925565b604080519485526020850193909352918301526060820152608001610158565b61014e60055481565b61014e610962565b6003546101d9906001600160a01b031681565b61014e60065481565b6101946109c0565b6101946102d0366004610ce5565b6109e1565b6102e86102e3366004610ce5565b610a1c565b60408051938452602084019290925290820152606001610158565b6001600160a01b0381166000908152600a60209081526040808320546009909252822054670de0b6b3a764000090610339610962565b6103439190610d44565b6001600160a01b0385166000908152600860205260409020546103669190610d57565b6103709190610d6e565b61037a9190610d90565b92915050565b610388610b2a565b33610391610962565b600655426005556001600160a01b038116156103dc576103b081610303565b6001600160a01b0382166000908152600a60209081526040808320939093556006546009909152919020555b600082116104255760405162461bcd60e51b8152602060048201526011602482015270043616e6e6f74207769746864726177203607c1b60448201526064015b60405180910390fd5b3360009081526008602052604090205482111561047b5760405162461bcd60e51b8152602060048201526014602482015273496e73756666696369656e742062616c616e636560601b604482015260640161041c565b816007600082825461048d9190610d44565b909155505033600090815260086020526040812080548492906104b1908490610d44565b90915550506002546104cd906001600160a01b03163384610b54565b60405182815233907f7084f5476618d8e60b11ef0d7d3f06914655adb8793e28ff7f018d4c76d505d5906020015b60405180910390a25061050d60018055565b50565b610518610b2a565b33610521610962565b600655426005556001600160a01b0381161561056c5761054081610303565b6001600160a01b0382166000908152600a60209081526040808320939093556006546009909152919020555b336000908152600a602052604090205480156105e157336000818152600a60205260408120556003546105ab916001600160a01b039091169083610b54565b60405181815233907fe2403640ba68fed3a2f88b7557551d1993f84b99bb10ff833f0cf8db0c5e04869060200160405180910390a25b50506105ec60018055565b565b6105f6610bb8565b6105ec6000610be5565b610608610bb8565b6000610612610962565b600655426005556001600160a01b0381161561065d5761063181610303565b6001600160a01b0382166000908152600a60209081526040808320939093556006546009909152919020555b60048290556040518281527f41d466ebd06fb97e7786086ac8b69b7eb7da798592036251291d34e9791cde019060200160405180910390a15050565b6106a1610b2a565b336106aa610962565b600655426005556001600160a01b038116156106f5576106c981610303565b6001600160a01b0382166000908152600a60209081526040808320939093556006546009909152919020555b600082116107365760405162461bcd60e51b815260206004820152600e60248201526d043616e6e6f74207374616b6520360941b604482015260640161041c565b600254604051636eb1769f60e11b815233600482015230602482015283916001600160a01b03169063dd62ed3e90604401602060405180830381865afa158015610784573d6000803e3d6000fd5b505050506040513d601f19601f820116820180604052508101906107a89190610da3565b10156107ef5760405162461bcd60e51b8152602060048201526016602482015275496e73756666696369656e7420616c6c6f77616e636560501b604482015260640161041c565b6002546040516370a0823160e01b815233600482015283916001600160a01b0316906370a0823190602401602060405180830381865afa158015610837573d6000803e3d6000fd5b505050506040513d601f19601f8201168201806040525081019061085b9190610da3565b10156108a05760405162461bcd60e51b8152602060048201526014602482015273496e73756666696369656e742062616c616e636560601b604482015260640161041c565b81600760008282546108b29190610d90565b909155505033600090815260086020526040812080548492906108d6908490610d90565b90915550506002546108f3906001600160a01b0316333085610c35565b60405182815233907f9e71bc8eea02a63969f509818f2dafb9254532904319f9dbda79b67bd34a5f3d906020016104fb565b6001600160a01b03811660009081526008602052604081205481908190819061094d86610303565b60075460045493509350935093509193509193565b6000600754600003610975575060065490565b6007546004546005546109889042610d44565b6109929190610d57565b6109a490670de0b6b3a7640000610d57565b6109ae9190610d6e565b6006546109bb9190610d90565b905090565b336000908152600860205260409020546109d990610380565b6105ec610510565b6109e9610bb8565b6001600160a01b038116610a1357604051631e4fbdf760e01b81526000600482015260240161041c565b61050d81610be5565b6002546040516370a0823160e01b81526001600160a01b03838116600483015260009283928392909116906370a0823190602401602060405180830381865afa158015610a6d573d6000803e3d6000fd5b505050506040513d601f19601f82011682018060405250810190610a919190610da3565b600254604051636eb1769f60e11b81526001600160a01b0387811660048301523060248301529091169063dd62ed3e90604401602060405180830381865afa158015610ae1573d6000803e3d6000fd5b505050506040513d601f19601f82011682018060405250810190610b059190610da3565b6001600160a01b03959095166000908152600860205260409020549095909350915050565b600260015403610b4d57604051633ee5aeb560e01b815260040160405180910390fd5b6002600155565b6040516001600160a01b03838116602483015260448201839052610bb391859182169063a9059cbb906064015b604051602081830303815290604052915060e01b6020820180516001600160e01b038381831617835250505050610c74565b505050565b6000546001600160a01b031633146105ec5760405163118cdaa760e01b815233600482015260240161041c565b600080546001600160a01b038381166001600160a01b0319831681178455604051919092169283917f8be0079c531659141344cd1fd0a4f28419497f9722a3daafe3b4186f6b6457e09190a35050565b6040516001600160a01b038481166024830152838116604483015260648201839052610c6e9186918216906323b872dd90608401610b81565b50505050565b600080602060008451602086016000885af180610c97576040513d6000823e3d81fd5b50506000513d91508115610caf578060011415610cbc565b6001600160a01b0384163b155b15610c6e57604051635274afe760e01b81526001600160a01b038516600482015260240161041c565b600060208284031215610cf757600080fd5b81356001600160a01b0381168114610d0e57600080fd5b9392505050565b600060208284031215610d2757600080fd5b5035919050565b634e487b7160e01b600052601160045260246000fd5b8181038181111561037a5761037a610d2e565b808202811582820484141761037a5761037a610d2e565b600082610d8b57634e487b7160e01b600052601260045260246000fd5b500490565b8082018082111561037a5761037a610d2e565b600060208284031215610db557600080fd5b505191905056fea264697066735822122022a3034e5018637608ff7940ac461940bffa17ea1db17d8d768f80a2ff45b57264736f6c6343000814003360806040523480156200001157600080fd5b5060405162000fd038038062000fd0833981016040819052620000349162000349565b33838360036200004583826200044b565b5060046200005482826200044b565b5050506001600160a01b0381166200008757604051631e4fbdf760e01b8152600060048201526024015b60405180910390fd5b6200009281620000c1565b50620000b833620000a66012600a6200062c565b620000b2908462000644565b62000113565b50505062000674565b600580546001600160a01b038381166001600160a01b0319831681179093556040519116919082907f8be0079c531659141344cd1fd0a4f28419497f9722a3daafe3b4186f6b6457e090600090a35050565b6001600160a01b0382166200013f5760405163ec442f0560e01b8152600060048201526024016200007e565b6200014d6000838362000151565b5050565b6001600160a01b038316620001805780600260008282546200017491906200065e565b90915550620001f49050565b6001600160a01b03831660009081526020819052604090205481811015620001d55760405163391434e360e21b81526001600160a01b038516600482015260248101829052604481018390526064016200007e565b6001600160a01b03841660009081526020819052604090209082900390555b6001600160a01b038216620002125760028054829003905562000231565b6001600160a01b03821660009081526020819052604090208054820190555b816001600160a01b0316836001600160a01b03167fddf252ad1be2c89b69c2b068fc378daa952ba7f163c4a11628f55a4df523b3ef836040516200027791815260200190565b60405180910390a3505050565b634e487b7160e01b600052604160045260246000fd5b600082601f830112620002ac57600080fd5b81516001600160401b0380821115620002c957620002c962000284565b604051601f8301601f19908116603f01168101908282118183101715620002f457620002f462000284565b816040528381526020925086838588010111156200031157600080fd5b600091505b8382101562000335578582018301518183018401529082019062000316565b600093810190920192909252949350505050565b6000806000606084860312156200035f57600080fd5b83516001600160401b03808211156200037757600080fd5b62000385878388016200029a565b945060208601519150808211156200039c57600080fd5b50620003ab868287016200029a565b925050604084015190509250925092565b600181811c90821680620003d157607f821691505b602082108103620003f257634e487b7160e01b600052602260045260246000fd5b50919050565b601f8211156200044657600081815260208120601f850160051c81016020861015620004215750805b601f850160051c820191505b8181101562000442578281556001016200042d565b5050505b505050565b81516001600160401b0381111562000467576200046762000284565b6200047f81620004788454620003bc565b84620003f8565b602080601f831160018114620004b757600084156200049e5750858301515b600019600386901b1c1916600185901b17855562000442565b600085815260208120601f198616915b82811015620004e857888601518255948401946001909101908401620004c7565b5085821015620005075787850151600019600388901b60f8161c191681555b5050505050600190811b01905550565b634e487b7160e01b600052601160045260246000fd5b600181815b808511156200056e57816000190482111562000552576200055262000517565b808516156200056057918102915b93841c939080029062000532565b509250929050565b600082620005875750600162000626565b81620005965750600062000626565b8160018114620005af5760028114620005ba57620005da565b600191505062000626565b60ff841115620005ce57620005ce62000517565b50506001821b62000626565b5060208310610133831016604e8410600b8410161715620005ff575081810a62000626565b6200060b83836200052d565b806000190482111562000622576200062262000517565b0290505b92915050565b60006200063d60ff84168362000576565b9392505050565b808202811582820484141762000626576200062662000517565b8082018082111562000626576200062662000517565b61094c80620006846000396000f3fe608060405234801561001057600080fd5b50600436106100ea5760003560e01c806370a082311161008c57806395d89b411161006657806395d89b41146101d8578063a9059cbb146101e0578063dd62ed3e146101f3578063f2fde38b1461022c57600080fd5b806370a082311461018c578063715018a6146101b55780638da5cb5b146101bd57600080fd5b806323b872dd116100c857806323b872dd14610142578063313ce5671461015557806340c10f191461016457806342966c681461017957600080fd5b806306fdde03146100ef578063095ea7b31461010d57806318160ddd14610130575b600080fd5b6100f761023f565b604051610104919061077d565b60405180910390f35b61012061011b3660046107e7565b6102d1565b6040519015158152602001610104565b6002545b604051908152602001610104565b610120610150366004610811565b6102eb565b60405160128152602001610104565b6101776101723660046107e7565b61030f565b005b61017761018736600461084d565b610325565b61013461019a366004610866565b6001600160a01b031660009081526020819052604090205490565b610177610332565b6005546040516001600160a01b039091168152602001610104565b6100f7610346565b6101206101ee3660046107e7565b610355565b610134610201366004610888565b6001600160a01b03918216600090815260016020908152604080832093909416825291909152205490565b61017761023a366004610866565b610363565b60606003805461024e906108bb565b80601f016020809104026020016040519081016040528092919081815260200182805461027a906108bb565b80156102c75780601f1061029c576101008083540402835291602001916102c7565b820191906000526020600020905b8154815290600101906020018083116102aa57829003601f168201915b5050505050905090565b6000336102df8185856103a3565b60019150505b92915050565b6000336102f98582856103b5565b610304858585610434565b506001949350505050565b610317610493565b61032182826104c0565b5050565b61032f33826104f6565b50565b61033a610493565b610344600061052c565b565b60606004805461024e906108bb565b6000336102df818585610434565b61036b610493565b6001600160a01b03811661039a57604051631e4fbdf760e01b8152600060048201526024015b60405180910390fd5b61032f8161052c565b6103b0838383600161057e565b505050565b6001600160a01b0383811660009081526001602090815260408083209386168352929052205460001981101561042e578181101561041f57604051637dc7a0d960e11b81526001600160a01b03841660048201526024810182905260448101839052606401610391565b61042e8484848403600061057e565b50505050565b6001600160a01b03831661045e57604051634b637e8f60e11b815260006004820152602401610391565b6001600160a01b0382166104885760405163ec442f0560e01b815260006004820152602401610391565b6103b0838383610653565b6005546001600160a01b031633146103445760405163118cdaa760e01b8152336004820152602401610391565b6001600160a01b0382166104ea5760405163ec442f0560e01b815260006004820152602401610391565b61032160008383610653565b6001600160a01b03821661052057604051634b637e8f60e11b815260006004820152602401610391565b61032182600083610653565b600580546001600160a01b038381166001600160a01b0319831681179093556040519116919082907f8be0079c531659141344cd1fd0a4f28419497f9722a3daafe3b4186f6b6457e090600090a35050565b6001600160a01b0384166105a85760405163e602df0560e01b815260006004820152602401610391565b6001600160a01b0383166105d257604051634a1406b160e11b815260006004820152602401610391565b6001600160a01b038085166000908152600160209081526040808320938716835292905220829055801561042e57826001600160a01b0316846001600160a01b03167f8c5be1e5ebec7d5bd14f71427d1e84f3dd0314c0f7b2291e5b200ac8c7c3b9258460405161064591815260200190565b60405180910390a350505050565b6001600160a01b03831661067e57806002600082825461067391906108f5565b909155506106f09050565b6001600160a01b038316600090815260208190526040902054818110156106d15760405163391434e360e21b81526001600160a01b03851660048201526024810182905260448101839052606401610391565b6001600160a01b03841660009081526020819052604090209082900390555b6001600160a01b03821661070c5760028054829003905561072b565b6001600160a01b03821660009081526020819052604090208054820190555b816001600160a01b0316836001600160a01b03167fddf252ad1be2c89b69c2b068fc378daa952ba7f163c4a11628f55a4df523b3ef8360405161077091815260200190565b60405180910390a3505050565b600060208083528351808285015260005b818110156107aa5785810183015185820160400152820161078e565b506000604082860101526040601f19601f8301168501019250505092915050565b80356001600160a01b03811681146107e257600080fd5b919050565b600080604083850312156107fa57600080fd5b610803836107cb565b946020939093013593505050565b60008060006060848603121561082657600080fd5b61082f846107cb565b925061083d602085016107cb565b9150604084013590509250925092565b60006020828403121561085f57600080fd5b5035919050565b60006020828403121561087857600080fd5b610881826107cb565b9392505050565b6000806040838503121561089b57600080fd5b6108a4836107cb565b91506108b2602084016107cb565b90509250929050565b600181811c908216806108cf57607f821691505b6020821081036108ef57634e487b7160e01b600052602260045260246000fd5b50919050565b808201808211156102e557634e487b7160e01b600052601160045260246000fdfea264697066735822122080dd342409cf00b368af5b92877f5e60e53c06679dbf993fc9ba52b9f4be243e64736f6c63430008140033a2646970667358221220189e1fcf7c12bdc1a9b26f2f71c311d2c9e47ae62c658e64253e117a33f34b6a64736f6c63430008140033",
  "linkReferences": {},
  "deployedLinkReferences": {}
}