{
  "_format": "hh-sol-artifact-1",
  "contractName": "MyERC721NFT",
  "sourceName": "contracts/MyERC721NFT.sol",
  "abi": [
    {
      "inputs": [
        {
          "internalType": "string",
          "name": "name",
          "type": "string"
        },
        {
          "internalType": "string",
          "name": "symbol",
          "type": "string"
        },
        {
          "internalType": "string",
          "name": "baseURI",
          "type": "string"
        }
      ],
      "stateMutability": "nonpayable",
      "type": "constructor"
    },
    {
      "inputs": [
        {
          "internalType": "address",
          "name": "sender",
          "type": "address"
        },
        {
          "internalType": "uint256",
          "name": "tokenId",
          "type": "uint256"
        },
        {
          "internalType": "address",
          "name": "owner",
          "type": "address"
        }
      ],
      "name": "ERC721IncorrectOwner",
      "type": "error"
    },
    {
      "inputs": [
        {
          "internalType": "address",
          "name": "operator",
          "type": "address"
        },
        {
          "internalType": "uint256",
          "name": "tokenId",
          "type": "uint256"
        }
      ],
      "name": "ERC721InsufficientApproval",
      "type": "error"
    },
    {
      "inputs": [
        {
          "internalType": "address",
          "name": "approver",
          "type": "address"
        }
      ],
      "name": "ERC721InvalidApprover",
      "type": "error"
    },
    {
      "inputs": [
        {
          "internalType": "address",
          "name": "operator",
          "type": "address"
        }
      ],
      "name": "ERC721InvalidOperator",
      "type": "error"
    },
    {
      "inputs": [
        {
          "internalType": "address",
          "name": "owner",
          "type": "address"
        }
      ],
      "name": "ERC721InvalidOwner",
      "type": "error"
    },
    {
      "inputs": [
        {
          "internalType": "address",
          "name": "receiver",
          "type": "address"
        }
      ],
      "name": "ERC721InvalidReceiver",
      "type": "error"
    },
    {
      "inputs": [
        {
          "internalType": "address",
          "name": "sender",
          "type": "address"
        }
      ],
      "name": "ERC721InvalidSender",
      "type": "error"
    },
    {
      "inputs": [
        {
          "internalType": "uint256",
          "name": "tokenId",
          "type": "uint256"
        }
      ],
      "name": "ERC721NonexistentToken",
      "type": "error"
    },
    {
      "inputs": [
        {
          "internalType": "address",
          "name": "owner",
          "type": "address"
        }
      ],
      "name": "OwnableInvalidOwner",
      "type": "error"
    },
    {
      "inputs": [
        {
          "internalType": "address",
          "name": "account",
          "type": "address"
        }
      ],
      "name": "OwnableUnauthorizedAccount",
      "type": "error"
    },
    {
      "anonymous": false,
      "inputs": [
        {
          "indexed": true,
          "internalType": "address",
          "name": "owner",
          "type": "address"
        },
        {
          "indexed": true,
          "internalType": "address",
          "name": "approved",
          "type": "address"
        },
        {
          "indexed": true,
          "internalType": "uint256",
          "name": "tokenId",
          "type": "uint256"
        }
      ],
      "name": "Approval",
      "type": "event"
    },
    {
      "anonymous": false,
      "inputs": [
        {
          "indexed": true,
          "internalType": "address",
          "name": "owner",
          "type": "address"
        },
        {
          "indexed": true,
          "internalType": "address",
          "name": "operator",
          "type": "address"
        },
        {
          "indexed": false,
          "internalType": "bool",
          "name": "approved",
          "type": "bool"
        }
      ],
      "name": "ApprovalForAll",
      "type": "event"
    },
    {
      "anonymous": false,
      "inputs": [
        {
          "indexed": false,
          "internalType": "uint256",
          "name": "_fromTokenId",
          "type": "uint256"
        },
        {
          "indexed": false,
          "internalType": "uint256",
          "name": "_toTokenId",
          "type": "uint256"
        }
      ],
      "name": "BatchMetadataUpdate",
      "type": "event"
    },
    {
      "anonymous": false,
      "inputs": [
        {
          "indexed": false,
          "internalType": "uint256",
          "name": "_tokenId",
          "type": "uint256"
        }
      ],
      "name": "MetadataUpdate",
      "type": "event"
    },
    {
      "anonymous": false,
      "inputs": [
        {
          "indexed": true,
          "internalType": "address",
          "name": "previousOwner",
          "type": "address"
        },
        {
          "indexed": true,
          "internalType": "address",
          "name": "newOwner",
          "type": "address"
        }
      ],
      "name": "OwnershipTransferred",
      "type": "event"
    },
    {
      "anonymous": false,
      "inputs": [
        {
          "indexed": true,
          "internalType": "address",
          "name": "from",
          "type": "address"
        },
        {
          "indexed": true,
          "internalType": "address",
          "name": "to",
          "type": "address"
        },
        {
          "indexed": true,
          "internalType": "uint256",
          "name": "tokenId",
          "type": "uint256"
        }
      ],
      "name": "Transfer",
      "type": "event"
    },
    {
      "inputs": [
        {
          "internalType": "address",
          "name": "to",
          "type": "address"
        },
        {
          "internalType": "uint256",
          "name": "tokenId",
          "type": "uint256"
        }
      ],
      "name": "approve",
      "outputs": [],
      "stateMutability": "nonpayable",
      "type": "function"
    },
    {
      "inputs": [
        {
          "internalType": "address",
          "name": "owner",
          "type": "address"
        }
      ],
      "name": "balanceOf",
      "outputs": [
        {
          "internalType": "uint256",
          "name": "",
          "type": "uint256"
        }
      ],
      "stateMutability": "view",
      "type": "function"
    },
    {
      "inputs": [
        {
          "internalType": "address",
          "name": "to",
          "type": "address"
        },
        {
          "internalType": "uint256",
          "name": "amount",
          "type": "uint256"
        }
      ],
      "name": "batchMint",
      "outputs": [],
      "stateMutability": "nonpayable",
      "type": "function"
    },
    {
      "inputs": [
        {
          "internalType": "address",
          "name": "to",
          "type": "address"
        },
        {
          "internalType": "uint256[]",
          "name": "tokenIds",
          "type": "uint256[]"
        }
      ],
      "name": "batchTransfer",
      "outputs": [],
      "stateMutability": "nonpayable",
      "type": "function"
    },
    {
      "inputs": [
        {
          "internalType": "address[]",
          "name": "recipients",
          "type": "address[]"
        },
        {
          "internalType": "uint256[]",
          "name": "tokenIds",
          "type": "uint256[]"
        }
      ],
      "name": "batchTransferMultiple",
      "outputs": [],
      "stateMutability": "nonpayable",
      "type": "function"
    },
    {
      "inputs": [
        {
          "internalType": "uint256",
          "name": "tokenId",
          "type": "uint256"
        }
      ],
      "name": "getApproved",
      "outputs": [
        {
          "internalType": "address",
          "name": "",
          "type": "address"
        }
      ],
      "stateMutability": "view",
      "type": "function"
    },
    {
      "inputs": [
        {
          "internalType": "address",
          "name": "owner",
          "type": "address"
        },
        {
          "internalType": "address",
          "name": "operator",
          "type": "address"
        }
      ],
      "name": "isApprovedForAll",
      "outputs": [
        {
          "internalType": "bool",
          "name": "",
          "type": "bool"
        }
      ],
      "stateMutability": "view",
      "type": "function"
    },
    {
      "inputs": [],
      "name": "name",
      "outputs": [
        {
          "internalType": "string",
          "name": "",
          "type": "string"
        }
      ],
      "stateMutability": "view",
      "type": "function"
    },
    {
      "inputs": [],
      "name": "owner",
      "outputs": [
        {
          "internalType": "address",
          "name": "",
          "type": "address"
        }
      ],
      "stateMutability": "view",
      "type": "function"
    },
    {
      "inputs": [
        {
          "internalType": "uint256",
          "name": "tokenId",
          "type": "uint256"
        }
      ],
      "name": "ownerOf",
      "outputs": [
        {
          "internalType": "address",
          "name": "",
          "type": "address"
        }
      ],
      "stateMutability": "view",
      "type": "function"
    },
    {
      "inputs": [],
      "name": "renounceOwnership",
      "outputs": [],
      "stateMutability": "nonpayable",
      "type": "function"
    },
    {
      "inputs": [
        {
          "internalType": "address",
          "name": "to",
          "type": "address"
        },
        {
          "internalType": "string",
          "name": "uri",
          "type": "string"
        }
      ],
      "name": "safeMint",
      "outputs": [],
      "stateMutability": "nonpayable",
      "type": "function"
    },
    {
      "inputs": [
        {
          "internalType": "address",
          "name": "from",
          "type": "address"
        },
        {
          "internalType": "address",
          "name": "to",
          "type": "address"
        },
        {
          "internalType": "uint256",
          "name": "tokenId",
          "type": "uint256"
        }
      ],
      "name": "safeTransferFrom",
      "outputs": [],
      "stateMutability": "nonpayable",
      "type": "function"
    },
    {
      "inputs": [
        {
          "internalType": "address",
          "name": "from",
          "type": "address"
        },
        {
          "internalType": "address",
          "name": "to",
          "type": "address"
        },
        {
          "internalType": "uint256",
          "name": "tokenId",
          "type": "uint256"
        },
        {
          "internalType": "bytes",
          "name": "data",
          "type": "bytes"
        }
      ],
      "name": "safeTransferFrom",
      "outputs": [],
      "stateMutability": "nonpayable",
      "type": "function"
    },
    {
      "inputs": [
        {
          "internalType": "address",
          "name": "operator",
          "type": "address"
        },
        {
          "internalType": "bool",
          "name": "approved",
          "type": "bool"
        }
      ],
      "name": "setApprovalForAll",
      "outputs": [],
      "stateMutability": "nonpayable",
      "type": "function"
    },
    {
      "inputs": [
        {
          "internalType": "string",
          "name": "baseURI",
          "type": "string"
        }
      ],
      "name": "setBaseURI",
      "outputs": [],
      "stateMutability": "nonpayable",
      "type": "function"
    },
    {
      "inputs": [
        {
          "internalType": "bytes4",
          "name": "interfaceId",
          "type": "bytes4"
        }
      ],
      "name": "supportsInterface",
      "outputs": [
        {
          "internalType": "bool",
          "name": "",
          "type": "bool"
        }
      ],
      "stateMutability": "view",
      "type": "function"
    },
    {
      "inputs": [],
      "name": "symbol",
      "outputs": [
        {
          "internalType": "string",
          "name": "",
          "type": "string"
        }
      ],
      "stateMutability": "view",
      "type": "function"
    },
    {
      "inputs": [
        {
          "internalType": "uint256",
          "name": "tokenId",
          "type": "uint256"
        }
      ],
      "name": "tokenURI",
      "outputs": [
        {
          "internalType": "string",
          "name": "",
          "type": "string"
        }
      ],
      "stateMutability": "view",
      "type": "function"
    },
    {
      "inputs": [
        {
          "internalType": "address",
          "name": "from",
          "type": "address"
        },
        {
          "internalType": "address",
          "name": "to",
          "type": "address"
        },
        {
          "internalType": "uint256",
          "name": "tokenId",
          "type": "uint256"
        }
      ],
      "name": "transferFrom",
      "outputs": [],
      "stateMutability": "nonpayable",
      "type": "function"
    },
    {
      "inputs": [
        {
          "internalType": "address",
          "name": "newOwner",
          "type": "address"
        }
      ],
      "name": "transferOwnership",
      "outputs": [],
      "stateMutability": "nonpayable",
      "type": "function"
    }
  ],
  "bytecode": "0x60806040523480156200001157600080fd5b5060405162001e6f38038062001e6f8339810160408190526200003491620001c1565b3383836000620000458382620002e1565b506001620000548282620002e1565b5050506001600160a01b0381166200008657604051631e4fbdf760e01b81526000600482015260240160405180910390fd5b6200009181620000aa565b506009620000a08282620002e1565b50505050620003ad565b600780546001600160a01b038381166001600160a01b0319831681179093556040519116919082907f8be0079c531659141344cd1fd0a4f28419497f9722a3daafe3b4186f6b6457e090600090a35050565b634e487b7160e01b600052604160045260246000fd5b600082601f8301126200012457600080fd5b81516001600160401b0380821115620001415762000141620000fc565b604051601f8301601f19908116603f011681019082821181831017156200016c576200016c620000fc565b816040528381526020925086838588010111156200018957600080fd5b600091505b83821015620001ad57858201830151818301840152908201906200018e565b600093810190920192909252949350505050565b600080600060608486031215620001d757600080fd5b83516001600160401b0380821115620001ef57600080fd5b620001fd8783880162000112565b945060208601519150808211156200021457600080fd5b620002228783880162000112565b935060408601519150808211156200023957600080fd5b50620002488682870162000112565b9150509250925092565b600181811c908216806200026757607f821691505b6020821081036200028857634e487b7160e01b600052602260045260246000fd5b50919050565b601f821115620002dc57600081815260208120601f850160051c81016020861015620002b75750805b601f850160051c820191505b81811015620002d857828155600101620002c3565b5050505b505050565b81516001600160401b03811115620002fd57620002fd620000fc565b62000315816200030e845462000252565b846200028e565b602080601f8311600181146200034d5760008415620003345750858301515b600019600386901b1c1916600185901b178555620002d8565b600085815260208120601f198616915b828110156200037e578886015182559484019460019091019084016200035d565b50858210156200039d5787850151600019600388901b60f8161c191681555b5050505050600190811b01905550565b611ab280620003bd6000396000f3fe608060405234801561001057600080fd5b50600436106101375760003560e01c8063715018a6116100b8578063b88d4fde1161007c578063b88d4fde14610280578063c87b56dd14610293578063d204c45e146102a6578063d99eb068146102b9578063e985e9c5146102cc578063f2fde38b146102df57600080fd5b8063715018a6146102395780638da5cb5b1461024157806395d89b4114610252578063a22cb4651461025a578063ac3c99521461026d57600080fd5b806342842e0e116100ff57806342842e0e146101cc57806343508b05146101df57806355f804b3146101f25780636352211e1461020557806370a082311461021857600080fd5b806301ffc9a71461013c57806306fdde0314610164578063081812fc14610179578063095ea7b3146101a457806323b872dd146101b9575b600080fd5b61014f61014a36600461138a565b6102f2565b60405190151581526020015b60405180910390f35b61016c610303565b60405161015b91906113f7565b61018c61018736600461140a565b610395565b6040516001600160a01b03909116815260200161015b565b6101b76101b236600461143f565b6103be565b005b6101b76101c7366004611469565b6103cd565b6101b76101da366004611469565b61045d565b6101b76101ed36600461143f565b61047d565b6101b7610200366004611564565b6104c4565b61018c61021336600461140a565b6104d8565b61022b610226366004611599565b6104e3565b60405190815260200161015b565b6101b761052b565b6007546001600160a01b031661018c565b61016c61053f565b6101b76102683660046115b4565b61054e565b6101b761027b36600461167f565b610559565b6101b761028e3660046116cd565b610711565b61016c6102a136600461140a565b610729565b6101b76102b4366004611749565b610734565b6101b76102c736600461178d565b610767565b61014f6102da366004611843565b610971565b6101b76102ed366004611599565b61099f565b60006102fd826109dd565b92915050565b60606000805461031290611876565b80601f016020809104026020016040519081016040528092919081815260200182805461033e90611876565b801561038b5780601f106103605761010080835404028352916020019161038b565b820191906000526020600020905b81548152906001019060200180831161036e57829003601f168201915b5050505050905090565b60006103a082610a02565b506000828152600460205260409020546001600160a01b03166102fd565b6103c9828233610a3b565b5050565b6001600160a01b0382166103fc57604051633250574960e11b8152600060048201526024015b60405180910390fd5b6000610409838333610a48565b9050836001600160a01b0316816001600160a01b031614610457576040516364283d7b60e01b81526001600160a01b03808616600483015260248201849052821660448201526064016103f3565b50505050565b61047883838360405180602001604052806000815250610711565b505050565b610485610b41565b60005b818110156104785760088054600091826104a1836118b0565b9190505590506104b18482610b6e565b50806104bc816118b0565b915050610488565b6104cc610b41565b60096103c9828261191d565b60006102fd82610a02565b60006001600160a01b03821661050f576040516322718ad960e21b8152600060048201526024016103f3565b506001600160a01b031660009081526003602052604090205490565b610533610b41565b61053d6000610b88565b565b60606001805461031290611876565b6103c9338383610bda565b6001600160a01b0382166105aa5760405162461bcd60e51b81526020600482015260186024820152775472616e7366657220746f207a65726f206164647265737360401b60448201526064016103f3565b60008151116105f35760405162461bcd60e51b8152602060048201526015602482015274456d70747920746f6b656e2049447320617272617960581b60448201526064016103f3565b60005b815181101561047857336001600160a01b031661062b83838151811061061e5761061e6119dd565b60200260200101516104d8565b6001600160a01b031614806106725750336001600160a01b031661066783838151811061065a5761065a6119dd565b6020026020010151610395565b6001600160a01b0316145b80610696575061069661069083838151811061061e5761061e6119dd565b33610971565b6106db5760405162461bcd60e51b8152602060048201526016602482015275139bdd081bdddb995c881b9bdc88185c1c1c9bdd995960521b60448201526064016103f3565b6106ff33848484815181106106f2576106f26119dd565b602002602001015161045d565b80610709816118b0565b9150506105f6565b61071c8484846103cd565b6104573385858585610c79565b60606102fd82610da4565b61073c610b41565b600880546000918261074d836118b0565b91905055905061075d8382610b6e565b6104788183610ea8565b80518251146107b15760405162461bcd60e51b8152602060048201526016602482015275082e4e4c2f2e640d8cadccee8d040dad2e6dac2e8c6d60531b60448201526064016103f3565b60008251116107f15760405162461bcd60e51b815260206004820152600c60248201526b456d7074792061727261797360a01b60448201526064016103f3565b60005b82518110156104785760006001600160a01b031683828151811061081a5761081a6119dd565b60200260200101516001600160a01b0316036108735760405162461bcd60e51b81526020600482015260186024820152775472616e7366657220746f207a65726f206164647265737360401b60448201526064016103f3565b336001600160a01b031661089283838151811061061e5761061e6119dd565b6001600160a01b031614806108cc5750336001600160a01b03166108c183838151811061065a5761065a6119dd565b6001600160a01b0316145b806108ea57506108ea61069083838151811061061e5761061e6119dd565b61092f5760405162461bcd60e51b8152602060048201526016602482015275139bdd081bdddb995c881b9bdc88185c1c1c9bdd995960521b60448201526064016103f3565b61095f33848381518110610945576109456119dd565b60200260200101518484815181106106f2576106f26119dd565b80610969816118b0565b9150506107f4565b6001600160a01b03918216600090815260056020908152604080832093909416825291909152205460ff1690565b6109a7610b41565b6001600160a01b0381166109d157604051631e4fbdf760e01b8152600060048201526024016103f3565b6109da81610b88565b50565b60006001600160e01b03198216632483248360e11b14806102fd57506102fd82610ef8565b6000818152600260205260408120546001600160a01b0316806102fd57604051637e27328960e01b8152600481018490526024016103f3565b6104788383836001610f48565b6000828152600260205260408120546001600160a01b0390811690831615610a7557610a7581848661104e565b6001600160a01b03811615610ab357610a92600085600080610f48565b6001600160a01b038116600090815260036020526040902080546000190190555b6001600160a01b03851615610ae2576001600160a01b0385166000908152600360205260409020805460010190555b60008481526002602052604080822080546001600160a01b0319166001600160a01b0389811691821790925591518793918516917fddf252ad1be2c89b69c2b068fc378daa952ba7f163c4a11628f55a4df523b3ef91a4949350505050565b6007546001600160a01b0316331461053d5760405163118cdaa760e01b81523360048201526024016103f3565b6103c98282604051806020016040528060008152506110b2565b600780546001600160a01b038381166001600160a01b0319831681179093556040519116919082907f8be0079c531659141344cd1fd0a4f28419497f9722a3daafe3b4186f6b6457e090600090a35050565b6001600160a01b038216610c0c57604051630b61174360e31b81526001600160a01b03831660048201526024016103f3565b6001600160a01b03838116600081815260056020908152604080832094871680845294825291829020805460ff191686151590811790915591519182527f17307eab39ab6107e8899845ad3d59bd9653f200f220920489ca2b5937696c31910160405180910390a3505050565b6001600160a01b0383163b15610d9d57604051630a85bd0160e11b81526001600160a01b0384169063150b7a0290610cbb9088908890879087906004016119f3565b6020604051808303816000875af1925050508015610cf6575060408051601f3d908101601f19168201909252610cf391810190611a30565b60015b610d5f573d808015610d24576040519150601f19603f3d011682016040523d82523d6000602084013e610d29565b606091505b508051600003610d5757604051633250574960e11b81526001600160a01b03851660048201526024016103f3565b805160208201fd5b6001600160e01b03198116630a85bd0160e11b14610d9b57604051633250574960e11b81526001600160a01b03851660048201526024016103f3565b505b5050505050565b6060610daf82610a02565b5060008281526006602052604081208054610dc990611876565b80601f0160208091040260200160405190810160405280929190818152602001828054610df590611876565b8015610e425780601f10610e1757610100808354040283529160200191610e42565b820191906000526020600020905b815481529060010190602001808311610e2557829003601f168201915b505050505090506000610e536110ca565b90508051600003610e65575092915050565b815115610e97578082604051602001610e7f929190611a4d565b60405160208183030381529060405292505050919050565b610ea0846110d9565b949350505050565b6000828152600660205260409020610ec0828261191d565b506040518281527ff8e1a15aba9398e019f0b49df1a4fde98ee17ae345cb5f6b5e2c27f5033e8ce79060200160405180910390a15050565b60006001600160e01b031982166380ac58cd60e01b1480610f2957506001600160e01b03198216635b5e139f60e01b145b806102fd57506301ffc9a760e01b6001600160e01b03198316146102fd565b8080610f5c57506001600160a01b03821615155b1561101e576000610f6c84610a02565b90506001600160a01b03831615801590610f985750826001600160a01b0316816001600160a01b031614155b8015610fab5750610fa98184610971565b155b15610fd45760405163a9fbf51f60e01b81526001600160a01b03841660048201526024016103f3565b811561101c5783856001600160a01b0316826001600160a01b03167f8c5be1e5ebec7d5bd14f71427d1e84f3dd0314c0f7b2291e5b200ac8c7c3b92560405160405180910390a45b505b5050600090815260046020526040902080546001600160a01b0319166001600160a01b0392909216919091179055565b611059838383611141565b610478576001600160a01b03831661108757604051637e27328960e01b8152600481018290526024016103f3565b60405163177e802f60e01b81526001600160a01b0383166004820152602481018290526044016103f3565b6110bc83836111a4565b610478336000858585610c79565b60606009805461031290611876565b60606110e482610a02565b5060006110ef6110ca565b9050600081511161110f576040518060200160405280600081525061113a565b8061111984611209565b60405160200161112a929190611a4d565b6040516020818303038152906040525b9392505050565b60006001600160a01b03831615801590610ea05750826001600160a01b0316846001600160a01b0316148061117b575061117b8484610971565b80610ea05750506000908152600460205260409020546001600160a01b03908116911614919050565b6001600160a01b0382166111ce57604051633250574960e11b8152600060048201526024016103f3565b60006111dc83836000610a48565b90506001600160a01b03811615610478576040516339e3563760e11b8152600060048201526024016103f3565b606060006112168361129c565b600101905060008167ffffffffffffffff811115611236576112366114a5565b6040519080825280601f01601f191660200182016040528015611260576020820181803683370190505b5090508181016020015b600019016f181899199a1a9b1b9c1cb0b131b232b360811b600a86061a8153600a850494508461126a57509392505050565b60008072184f03e93ff9f4daa797ed6e38ed64bf6a1f0160401b83106112db5772184f03e93ff9f4daa797ed6e38ed64bf6a1f0160401b830492506040015b6d04ee2d6d415b85acef81000000008310611307576d04ee2d6d415b85acef8100000000830492506020015b662386f26fc10000831061132557662386f26fc10000830492506010015b6305f5e100831061133d576305f5e100830492506008015b612710831061135157612710830492506004015b60648310611363576064830492506002015b600a83106102fd5760010192915050565b6001600160e01b0319811681146109da57600080fd5b60006020828403121561139c57600080fd5b813561113a81611374565b60005b838110156113c25781810151838201526020016113aa565b50506000910152565b600081518084526113e38160208601602086016113a7565b601f01601f19169290920160200192915050565b60208152600061113a60208301846113cb565b60006020828403121561141c57600080fd5b5035919050565b80356001600160a01b038116811461143a57600080fd5b919050565b6000806040838503121561145257600080fd5b61145b83611423565b946020939093013593505050565b60008060006060848603121561147e57600080fd5b61148784611423565b925061149560208501611423565b9150604084013590509250925092565b634e487b7160e01b600052604160045260246000fd5b604051601f8201601f1916810167ffffffffffffffff811182821017156114e4576114e46114a5565b604052919050565b600067ffffffffffffffff831115611506576115066114a5565b611519601f8401601f19166020016114bb565b905082815283838301111561152d57600080fd5b828260208301376000602084830101529392505050565b600082601f83011261155557600080fd5b61113a838335602085016114ec565b60006020828403121561157657600080fd5b813567ffffffffffffffff81111561158d57600080fd5b610ea084828501611544565b6000602082840312156115ab57600080fd5b61113a82611423565b600080604083850312156115c757600080fd5b6115d083611423565b9150602083013580151581146115e557600080fd5b809150509250929050565b600067ffffffffffffffff82111561160a5761160a6114a5565b5060051b60200190565b600082601f83011261162557600080fd5b8135602061163a611635836115f0565b6114bb565b82815260059290921b8401810191818101908684111561165957600080fd5b8286015b84811015611674578035835291830191830161165d565b509695505050505050565b6000806040838503121561169257600080fd5b61169b83611423565b9150602083013567ffffffffffffffff8111156116b757600080fd5b6116c385828601611614565b9150509250929050565b600080600080608085870312156116e357600080fd5b6116ec85611423565b93506116fa60208601611423565b925060408501359150606085013567ffffffffffffffff81111561171d57600080fd5b8501601f8101871361172e57600080fd5b61173d878235602084016114ec565b91505092959194509250565b6000806040838503121561175c57600080fd5b61176583611423565b9150602083013567ffffffffffffffff81111561178157600080fd5b6116c385828601611544565b600080604083850312156117a057600080fd5b823567ffffffffffffffff808211156117b857600080fd5b818501915085601f8301126117cc57600080fd5b813560206117dc611635836115f0565b82815260059290921b840181019181810190898411156117fb57600080fd5b948201945b838610156118205761181186611423565b82529482019490820190611800565b9650508601359250508082111561183657600080fd5b506116c385828601611614565b6000806040838503121561185657600080fd5b61185f83611423565b915061186d60208401611423565b90509250929050565b600181811c9082168061188a57607f821691505b6020821081036118aa57634e487b7160e01b600052602260045260246000fd5b50919050565b6000600182016118d057634e487b7160e01b600052601160045260246000fd5b5060010190565b601f82111561047857600081815260208120601f850160051c810160208610156118fe5750805b601f850160051c820191505b81811015610d9b5782815560010161190a565b815167ffffffffffffffff811115611937576119376114a5565b61194b816119458454611876565b846118d7565b602080601f83116001811461198057600084156119685750858301515b600019600386901b1c1916600185901b178555610d9b565b600085815260208120601f198616915b828110156119af57888601518255948401946001909101908401611990565b50858210156119cd5787850151600019600388901b60f8161c191681555b5050505050600190811b01905550565b634e487b7160e01b600052603260045260246000fd5b6001600160a01b0385811682528416602082015260408101839052608060608201819052600090611a26908301846113cb565b9695505050505050565b600060208284031215611a4257600080fd5b815161113a81611374565b60008351611a5f8184602088016113a7565b835190830190611a738183602088016113a7565b0194935050505056fea26469706673582212205a26494e4aa992956c4643144b7735da0f1b36bfd002d2bf63ddb13c03e8740b64736f6c63430008140033",
  "linkReferences": {},
  "deployedLinkReferences": {}
}