{
  "_format": "hh-sol-artifact-1",
  "contractName": "TokenFactory",
  "sourceName": "contracts/TokenFactory.sol",
  "abi": [
    {
      "anonymous": false,
      "inputs": [
        {
          "indexed": true,
          "internalType": "address",
          "name": "tokenAddress",
          "type": "address"
        },
        {
          "indexed": true,
          "internalType": "address",
          "name": "deployer",
          "type": "address"
        },
        {
          "indexed": false,
          "internalType": "string",
          "name": "name",
          "type": "string"
        },
        {
          "indexed": false,
          "internalType": "string",
          "name": "symbol",
          "type": "string"
        },
        {
          "indexed": false,
          "internalType": "string",
          "name": "baseURI",
          "type": "string"
        }
      ],
      "name": "ERC1155Deployed",
      "type": "event"
    },
    {
      "anonymous": false,
      "inputs": [
        {
          "indexed": true,
          "internalType": "address",
          "name": "tokenAddress",
          "type": "address"
        },
        {
          "indexed": true,
          "internalType": "address",
          "name": "deployer",
          "type": "address"
        },
        {
          "indexed": false,
          "internalType": "string",
          "name": "name",
          "type": "string"
        },
        {
          "indexed": false,
          "internalType": "string",
          "name": "symbol",
          "type": "string"
        },
        {
          "indexed": false,
          "internalType": "uint256",
          "name": "initialSupply",
          "type": "uint256"
        },
        {
          "indexed": false,
          "internalType": "uint8",
          "name": "decimals",
          "type": "uint8"
        }
      ],
      "name": "ERC20Deployed",
      "type": "event"
    },
    {
      "anonymous": false,
      "inputs": [
        {
          "indexed": true,
          "internalType": "address",
          "name": "tokenAddress",
          "type": "address"
        },
        {
          "indexed": true,
          "internalType": "address",
          "name": "deployer",
          "type": "address"
        },
        {
          "indexed": false,
          "internalType": "string",
          "name": "name",
          "type": "string"
        },
        {
          "indexed": false,
          "internalType": "string",
          "name": "symbol",
          "type": "string"
        },
        {
          "indexed": false,
          "internalType": "string",
          "name": "baseURI",
          "type": "string"
        }
      ],
      "name": "ERC721Deployed",
      "type": "event"
    },
    {
      "inputs": [
        {
          "internalType": "uint256",
          "name": "",
          "type": "uint256"
        }
      ],
      "name": "allDeployments",
      "outputs": [
        {
          "internalType": "address",
          "name": "tokenAddress",
          "type": "address"
        },
        {
          "internalType": "address",
          "name": "deployer",
          "type": "address"
        },
        {
          "internalType": "uint256",
          "name": "timestamp",
          "type": "uint256"
        },
        {
          "internalType": "string",
          "name": "tokenType",
          "type": "string"
        },
        {
          "internalType": "string",
          "name": "name",
          "type": "string"
        },
        {
          "internalType": "string",
          "name": "symbol",
          "type": "string"
        }
      ],
      "stateMutability": "view",
      "type": "function"
    },
    {
      "inputs": [
        {
          "internalType": "string",
          "name": "name",
          "type": "string"
        },
        {
          "internalType": "string",
          "name": "symbol",
          "type": "string"
        },
        {
          "internalType": "string",
          "name": "baseURI",
          "type": "string"
        }
      ],
      "name": "deployERC1155",
      "outputs": [
        {
          "internalType": "address",
          "name": "",
          "type": "address"
        }
      ],
      "stateMutability": "nonpayable",
      "type": "function"
    },
    {
      "inputs": [
        {
          "internalType": "string",
          "name": "name",
          "type": "string"
        },
        {
          "internalType": "string",
          "name": "symbol",
          "type": "string"
        },
        {
          "internalType": "uint256",
          "name": "initialSupply",
          "type": "uint256"
        },
        {
          "internalType": "uint8",
          "name": "decimals",
          "type": "uint8"
        }
      ],
      "name": "deployERC20",
      "outputs": [
        {
          "internalType": "address",
          "name": "",
          "type": "address"
        }
      ],
      "stateMutability": "nonpayable",
      "type": "function"
    },
    {
      "inputs": [
        {
          "internalType": "string",
          "name": "name",
          "type": "string"
        },
        {
          "internalType": "string",
          "name": "symbol",
          "type": "string"
        },
        {
          "internalType": "string",
          "name": "baseURI",
          "type": "string"
        }
      ],
      "name": "deployERC721",
      "outputs": [
        {
          "internalType": "address",
          "name": "",
          "type": "address"
        }
      ],
      "stateMutability": "nonpayable",
      "type": "function"
    },
    {
      "inputs": [
        {
          "internalType": "uint256",
          "name": "",
          "type": "uint256"
        }
      ],
      "name": "erc1155Tokens",
      "outputs": [
        {
          "internalType": "address",
          "name": "",
          "type": "address"
        }
      ],
      "stateMutability": "view",
      "type": "function"
    },
    {
      "inputs": [
        {
          "internalType": "uint256",
          "name": "",
          "type": "uint256"
        }
      ],
      "name": "erc20Tokens",
      "outputs": [
        {
          "internalType": "address",
          "name": "",
          "type": "address"
        }
      ],
      "stateMutability": "view",
      "type": "function"
    },
    {
      "inputs": [
        {
          "internalType": "uint256",
          "name": "",
          "type": "uint256"
        }
      ],
      "name": "erc721Tokens",
      "outputs": [
        {
          "internalType": "address",
          "name": "",
          "type": "address"
        }
      ],
      "stateMutability": "view",
      "type": "function"
    },
    {
      "inputs": [],
      "name": "getAllERC1155Tokens",
      "outputs": [
        {
          "internalType": "address[]",
          "name": "",
          "type": "address[]"
        }
      ],
      "stateMutability": "view",
      "type": "function"
    },
    {
      "inputs": [],
      "name": "getAllERC20Tokens",
      "outputs": [
        {
          "internalType": "address[]",
          "name": "",
          "type": "address[]"
        }
      ],
      "stateMutability": "view",
      "type": "function"
    },
    {
      "inputs": [],
      "name": "getAllERC721Tokens",
      "outputs": [
        {
          "internalType": "address[]",
          "name": "",
          "type": "address[]"
        }
      ],
      "stateMutability": "view",
      "type": "function"
    },
    {
      "inputs": [
        {
          "internalType": "uint256",
          "name": "index",
          "type": "uint256"
        }
      ],
      "name": "getDeploymentInfo",
      "outputs": [
        {
          "components": [
            {
              "internalType": "address",
              "name": "tokenAddress",
              "type": "address"
            },
            {
              "internalType": "address",
              "name": "deployer",
              "type": "address"
            },
            {
              "internalType": "uint256",
              "name": "timestamp",
              "type": "uint256"
            },
            {
              "internalType": "string",
              "name": "tokenType",
              "type": "string"
            },
            {
              "internalType": "string",
              "name": "name",
              "type": "string"
            },
            {
              "internalType": "string",
              "name": "symbol",
              "type": "string"
            }
          ],
          "internalType": "struct TokenFactory.DeploymentInfo",
          "name": "",
          "type": "tuple"
        }
      ],
      "stateMutability": "view",
      "type": "function"
    },
    {
      "inputs": [],
      "name": "getTotalDeployments",
      "outputs": [
        {
          "internalType": "uint256",
          "name": "",
          "type": "uint256"
        }
      ],
      "stateMutability": "view",
      "type": "function"
    },
    {
      "inputs": [
        {
          "internalType": "address",
          "name": "user",
          "type": "address"
        }
      ],
      "name": "getUserDeployments",
      "outputs": [
        {
          "components": [
            {
              "internalType": "address",
              "name": "tokenAddress",
              "type": "address"
            },
            {
              "internalType": "address",
              "name": "deployer",
              "type": "address"
            },
            {
              "internalType": "uint256",
              "name": "timestamp",
              "type": "uint256"
            },
            {
              "internalType": "string",
              "name": "tokenType",
              "type": "string"
            },
            {
              "internalType": "string",
              "name": "name",
              "type": "string"
            },
            {
              "internalType": "string",
              "name": "symbol",
              "type": "string"
            }
          ],
          "internalType": "struct TokenFactory.DeploymentInfo[]",
          "name": "",
          "type": "tuple[]"
        }
      ],
      "stateMutability": "view",
      "type": "function"
    },
    {
      "inputs": [
        {
          "internalType": "address",
          "name": "",
          "type": "address"
        },
        {
          "internalType": "uint256",
          "name": "",
          "type": "uint256"
        }
      ],
      "name": "userDeployments",
      "outputs": [
        {
          "internalType": "address",
          "name": "tokenAddress",
          "type": "address"
        },
        {
          "internalType": "address",
          "name": "deployer",
          "type": "address"
        },
        {
          "internalType": "uint256",
          "name": "timestamp",
          "type": "uint256"
        },
        {
          "internalType": "string",
          "name": "tokenType",
          "type": "string"
        },
        {
          "internalType": "string",
          "name": "name",
          "type": "string"
        },
        {
          "internalType": "string",
          "name": "symbol",
          "type": "string"
        }
      ],
      "stateMutability": "view",
      "type": "function"
    }
  ],
  "bytecode": "0x608060405234801561001057600080fd5b50616e35806100206000396000f3fe60806040523480156200001157600080fd5b5060043610620000fd5760003560e01c806390f9438e1162000097578063e17640f4116200006e578063e17640f41462000210578063e36111ea1462000227578063e9174327146200023e578063ed907cae146200026457600080fd5b806390f9438e14620001e35780639cbe52c114620001fc578063dcbb62d1146200020657600080fd5b806356f1f93011620000d857806356f1f930146200015f578063630bdfac146200018f5780637d23ae9514620001b55780637fcae94214620001cc57600080fd5b806316e38783146200010257806316f3dd131462000136578063246c751f146200014d575b600080fd5b6200011962000113366004620011f8565b6200027b565b6040516200012d969594939291906200126d565b60405180910390f35b6200011962000147366004620012d9565b6200048f565b6000546040519081526020016200012d565b6200017662000170366004620012d9565b620004e3565b6040516001600160a01b0390911681526020016200012d565b620001a6620001a0366004620012f3565b6200050e565b6040516200012d919062001399565b62000176620001c6366004620014aa565b62000781565b62000176620001dd3660046200153c565b620008e5565b620001ed62000a4c565b6040516200012d9190620015ca565b620001ed62000ab0565b620001ed62000b12565b6200017662000221366004620012d9565b62000b74565b6200017662000238366004620014aa565b62000b85565b620002556200024f366004620012d9565b62000cd9565b6040516200012d919062001619565b6200017662000275366004620012d9565b62000fa6565b600460205281600052604060002081815481106200029857600080fd5b600091825260209091206006909102018054600182015460028301546003840180546001600160a01b0394851697509390921694509291620002da906200162e565b80601f016020809104026020016040519081016040528092919081815260200182805462000308906200162e565b8015620003595780601f106200032d5761010080835404028352916020019162000359565b820191906000526020600020905b8154815290600101906020018083116200033b57829003601f168201915b50505050509080600401805462000370906200162e565b80601f01602080910402602001604051908101604052809291908181526020018280546200039e906200162e565b8015620003ef5780601f10620003c357610100808354040283529160200191620003ef565b820191906000526020600020905b815481529060010190602001808311620003d157829003601f168201915b50505050509080600501805462000406906200162e565b80601f016020809104026020016040519081016040528092919081815260200182805462000434906200162e565b8015620004855780601f10620004595761010080835404028352916020019162000485565b820191906000526020600020905b8154815290600101906020018083116200046757829003601f168201915b5050505050905086565b60008181548110620004a057600080fd5b600091825260209091206006909102018054600182015460028301546003840180546001600160a01b039485169650929093169390929091620002da906200162e565b60038181548110620004f457600080fd5b6000918252602090912001546001600160a01b0316905081565b6001600160a01b0381166000908152600460209081526040808320805482518185028101850190935280835260609492939192909184015b82821015620007765760008481526020908190206040805160c0810182526006860290920180546001600160a01b03908116845260018201541693830193909352600283015490820152600382018054919291606084019190620005aa906200162e565b80601f0160208091040260200160405190810160405280929190818152602001828054620005d8906200162e565b8015620006295780601f10620005fd5761010080835404028352916020019162000629565b820191906000526020600020905b8154815290600101906020018083116200060b57829003601f168201915b5050505050815260200160048201805462000644906200162e565b80601f016020809104026020016040519081016040528092919081815260200182805462000672906200162e565b8015620006c35780601f106200069757610100808354040283529160200191620006c3565b820191906000526020600020905b815481529060010190602001808311620006a557829003601f168201915b50505050508152602001600582018054620006de906200162e565b80601f01602080910402602001604051908101604052809291908181526020018280546200070c906200162e565b80156200075d5780601f1062000731576101008083540402835291602001916200075d565b820191906000526020600020905b8154815290600101906020018083116200073f57829003601f168201915b5050505050815250508152602001906001019062000546565b505050509050919050565b6000808484846040516200079590620011b1565b620007a3939291906200166a565b604051809103906000f080158015620007c0573d6000803e3d6000fd5b5060405163f2fde38b60e01b815233600482015290915081906001600160a01b0382169063f2fde38b90602401600060405180830381600087803b1580156200080857600080fd5b505af11580156200081d573d6000803e3d6000fd5b505050506200084d816040518060400160405280600681526020016545524337323160d01b815250888862000fb7565b600280546001810182556000919091527f405787fa12a823e0f2b7631cc41b3ba8828b3321ca811111fa75cd3aa3bb5ace0180546001600160a01b0319166001600160a01b0383169081179091556040513391907f50d026e171a60e262bd75011ce928fbad93e6ace8a7b493a16cddb3f572ac1e290620008d4908a908a908a906200166a565b60405180910390a395945050505050565b60008085858585604051620008fa90620011bf565b620009099493929190620016b3565b604051809103906000f08015801562000926573d6000803e3d6000fd5b5060405163f2fde38b60e01b815233600482015290915081906001600160a01b0382169063f2fde38b90602401600060405180830381600087803b1580156200096e57600080fd5b505af115801562000983573d6000803e3d6000fd5b50505050620009b28160405180604001604052806005815260200164045524332360dc1b815250898962000fb7565b6001805480820182556000919091527fb10e2d527612073b26eecdfd717e6a320cf44b4afac2b0732d9fcbe2b7fa0cf60180546001600160a01b0319166001600160a01b0383169081179091556040513391907fac2357749f5f4bc3687f0e5a29ee5b945c6ce6c0327911f221fcb156031928639062000a3a908b908b908b908b90620016b3565b60405180910390a39695505050505050565b6060600380548060200260200160405190810160405280929190818152602001828054801562000aa657602002820191906000526020600020905b81546001600160a01b0316815260019091019060200180831162000a87575b5050505050905090565b6060600280548060200260200160405190810160405280929190818152602001828054801562000aa6576020028201919060005260206000209081546001600160a01b0316815260019091019060200180831162000a87575050505050905090565b6060600180548060200260200160405190810160405280929190818152602001828054801562000aa6576020028201919060005260206000209081546001600160a01b0316815260019091019060200180831162000a87575050505050905090565b60018181548110620004f457600080fd5b60008084848460405162000b9990620011cd565b62000ba7939291906200166a565b604051809103906000f08015801562000bc4573d6000803e3d6000fd5b5060405163f2fde38b60e01b815233600482015290915081906001600160a01b0382169063f2fde38b90602401600060405180830381600087803b15801562000c0c57600080fd5b505af115801562000c21573d6000803e3d6000fd5b5050505062000c5281604051806040016040528060078152602001664552433131353560c81b815250888862000fb7565b600380546001810182556000919091527fc2575a0e9e593c00f959f8c92f12db2869c3395a3b0502d05e2516446f71f85b0180546001600160a01b0319166001600160a01b0383169081179091556040513391907ff7500e787034b29857ce72ad7fdec4a0ed565bf9363c966a3f7a6cf5644e873190620008d4908a908a908a906200166a565b62000d256040518060c0016040528060006001600160a01b0316815260200160006001600160a01b03168152602001600081526020016060815260200160608152602001606081525090565b600054821062000d715760405162461bcd60e51b8152602060048201526013602482015272496e646578206f7574206f6620626f756e647360681b604482015260640160405180910390fd5b6000828154811062000d875762000d87620016f7565b60009182526020918290206040805160c081018252600690930290910180546001600160a01b0390811684526001820154169383019390935260028301549082015260038201805491929160608401919062000de3906200162e565b80601f016020809104026020016040519081016040528092919081815260200182805462000e11906200162e565b801562000e625780601f1062000e365761010080835404028352916020019162000e62565b820191906000526020600020905b81548152906001019060200180831162000e4457829003601f168201915b5050505050815260200160048201805462000e7d906200162e565b80601f016020809104026020016040519081016040528092919081815260200182805462000eab906200162e565b801562000efc5780601f1062000ed05761010080835404028352916020019162000efc565b820191906000526020600020905b81548152906001019060200180831162000ede57829003601f168201915b5050505050815260200160058201805462000f17906200162e565b80601f016020809104026020016040519081016040528092919081815260200182805462000f45906200162e565b801562000f965780601f1062000f6a5761010080835404028352916020019162000f96565b820191906000526020600020905b81548152906001019060200180831162000f7857829003601f168201915b5050505050815250509050919050565b60028181548110620004f457600080fd5b6040805160c0810182526001600160a01b038087168252336020830190815242938301938452606083018781526080840187905260a0840186905260008054600181018255908052845160069091027f290decd9548b62a8d60345a988386fc84ba6bc95484008f6362f93160ef3e563810180549286166001600160a01b031993841617815593517f290decd9548b62a8d60345a988386fc84ba6bc95484008f6362f93160ef3e564820180549190961692169190911790935593517f290decd9548b62a8d60345a988386fc84ba6bc95484008f6362f93160ef3e56583015592519192839290917f290decd9548b62a8d60345a988386fc84ba6bc95484008f6362f93160ef3e5660190620010ce908262001760565b5060808201516004820190620010e5908262001760565b5060a08201516005820190620010fc908262001760565b505033600090815260046020908152604080832080546001808201835591855293839020865160069095020180546001600160a01b03199081166001600160a01b03968716178255938701519181018054909416919094161790915583015160028201556060830151839250600382019062001179908262001760565b506080820151600482019062001190908262001760565b5060a08201516005820190620011a7908262001760565b5050505050505050565b611e6f806200182e83390190565b6113e4806200369d83390190565b61237f8062004a8183390190565b80356001600160a01b0381168114620011f357600080fd5b919050565b600080604083850312156200120c57600080fd5b6200121783620011db565b946020939093013593505050565b6000815180845260005b818110156200124d576020818501810151868301820152016200122f565b506000602082860101526020601f19601f83011685010191505092915050565b6001600160a01b038781168252861660208201526040810185905260c060608201819052600090620012a29083018662001225565b8281036080840152620012b6818662001225565b905082810360a0840152620012cc818562001225565b9998505050505050505050565b600060208284031215620012ec57600080fd5b5035919050565b6000602082840312156200130657600080fd5b6200131182620011db565b9392505050565b600060018060a01b038083511684528060208401511660208501525060408201516040840152606082015160c060608501526200135960c085018262001225565b90506080830151848203608086015262001374828262001225565b91505060a083015184820360a086015262001390828262001225565b95945050505050565b6000602080830181845280855180835260408601915060408160051b870101925083870160005b82811015620013f257603f19888603018452620013df85835162001318565b94509285019290850190600101620013c0565b5092979650505050505050565b634e487b7160e01b600052604160045260246000fd5b600082601f8301126200142757600080fd5b813567ffffffffffffffff80821115620014455762001445620013ff565b604051601f8301601f19908116603f01168101908282118183101715620014705762001470620013ff565b816040528381528660208588010111156200148a57600080fd5b836020870160208301376000602085830101528094505050505092915050565b600080600060608486031215620014c057600080fd5b833567ffffffffffffffff80821115620014d957600080fd5b620014e78783880162001415565b94506020860135915080821115620014fe57600080fd5b6200150c8783880162001415565b935060408601359150808211156200152357600080fd5b50620015328682870162001415565b9150509250925092565b600080600080608085870312156200155357600080fd5b843567ffffffffffffffff808211156200156c57600080fd5b6200157a8883890162001415565b955060208701359150808211156200159157600080fd5b50620015a08782880162001415565b93505060408501359150606085013560ff81168114620015bf57600080fd5b939692955090935050565b6020808252825182820181905260009190848201906040850190845b818110156200160d5783516001600160a01b031683529284019291840191600101620015e6565b50909695505050505050565b60208152600062001311602083018462001318565b600181811c908216806200164357607f821691505b6020821081036200166457634e487b7160e01b600052602260045260246000fd5b50919050565b6060815260006200167f606083018662001225565b828103602084015262001693818662001225565b90508281036040840152620016a9818562001225565b9695505050505050565b608081526000620016c8608083018762001225565b8281036020840152620016dc818762001225565b91505083604083015260ff8316606083015295945050505050565b634e487b7160e01b600052603260045260246000fd5b601f8211156200175b57600081815260208120601f850160051c81016020861015620017365750805b601f850160051c820191505b81811015620017575782815560010162001742565b5050505b505050565b815167ffffffffffffffff8111156200177d576200177d620013ff565b62001795816200178e84546200162e565b846200170d565b602080601f831160018114620017cd5760008415620017b45750858301515b600019600386901b1c1916600185901b17855562001757565b600085815260208120601f198616915b82811015620017fe57888601518255948401946001909101908401620017dd565b50858210156200181d5787850151600019600388901b60f8161c191681555b5050505050600190811b0190555056fe60806040523480156200001157600080fd5b5060405162001e6f38038062001e6f8339810160408190526200003491620001c1565b3383836000620000458382620002e1565b506001620000548282620002e1565b5050506001600160a01b0381166200008657604051631e4fbdf760e01b81526000600482015260240160405180910390fd5b6200009181620000aa565b506009620000a08282620002e1565b50505050620003ad565b600780546001600160a01b038381166001600160a01b0319831681179093556040519116919082907f8be0079c531659141344cd1fd0a4f28419497f9722a3daafe3b4186f6b6457e090600090a35050565b634e487b7160e01b600052604160045260246000fd5b600082601f8301126200012457600080fd5b81516001600160401b0380821115620001415762000141620000fc565b604051601f8301601f19908116603f011681019082821181831017156200016c576200016c620000fc565b816040528381526020925086838588010111156200018957600080fd5b600091505b83821015620001ad57858201830151818301840152908201906200018e565b600093810190920192909252949350505050565b600080600060608486031215620001d757600080fd5b83516001600160401b0380821115620001ef57600080fd5b620001fd8783880162000112565b945060208601519150808211156200021457600080fd5b620002228783880162000112565b935060408601519150808211156200023957600080fd5b50620002488682870162000112565b9150509250925092565b600181811c908216806200026757607f821691505b6020821081036200028857634e487b7160e01b600052602260045260246000fd5b50919050565b601f821115620002dc57600081815260208120601f850160051c81016020861015620002b75750805b601f850160051c820191505b81811015620002d857828155600101620002c3565b5050505b505050565b81516001600160401b03811115620002fd57620002fd620000fc565b62000315816200030e845462000252565b846200028e565b602080601f8311600181146200034d5760008415620003345750858301515b600019600386901b1c1916600185901b178555620002d8565b600085815260208120601f198616915b828110156200037e578886015182559484019460019091019084016200035d565b50858210156200039d5787850151600019600388901b60f8161c191681555b5050505050600190811b01905550565b611ab280620003bd6000396000f3fe608060405234801561001057600080fd5b50600436106101375760003560e01c8063715018a6116100b8578063b88d4fde1161007c578063b88d4fde14610280578063c87b56dd14610293578063d204c45e146102a6578063d99eb068146102b9578063e985e9c5146102cc578063f2fde38b146102df57600080fd5b8063715018a6146102395780638da5cb5b1461024157806395d89b4114610252578063a22cb4651461025a578063ac3c99521461026d57600080fd5b806342842e0e116100ff57806342842e0e146101cc57806343508b05146101df57806355f804b3146101f25780636352211e1461020557806370a082311461021857600080fd5b806301ffc9a71461013c57806306fdde0314610164578063081812fc14610179578063095ea7b3146101a457806323b872dd146101b9575b600080fd5b61014f61014a36600461138a565b6102f2565b60405190151581526020015b60405180910390f35b61016c610303565b60405161015b91906113f7565b61018c61018736600461140a565b610395565b6040516001600160a01b03909116815260200161015b565b6101b76101b236600461143f565b6103be565b005b6101b76101c7366004611469565b6103cd565b6101b76101da366004611469565b61045d565b6101b76101ed36600461143f565b61047d565b6101b7610200366004611564565b6104c4565b61018c61021336600461140a565b6104d8565b61022b610226366004611599565b6104e3565b60405190815260200161015b565b6101b761052b565b6007546001600160a01b031661018c565b61016c61053f565b6101b76102683660046115b4565b61054e565b6101b761027b36600461167f565b610559565b6101b761028e3660046116cd565b610711565b61016c6102a136600461140a565b610729565b6101b76102b4366004611749565b610734565b6101b76102c736600461178d565b610767565b61014f6102da366004611843565b610971565b6101b76102ed366004611599565b61099f565b60006102fd826109dd565b92915050565b60606000805461031290611876565b80601f016020809104026020016040519081016040528092919081815260200182805461033e90611876565b801561038b5780601f106103605761010080835404028352916020019161038b565b820191906000526020600020905b81548152906001019060200180831161036e57829003601f168201915b5050505050905090565b60006103a082610a02565b506000828152600460205260409020546001600160a01b03166102fd565b6103c9828233610a3b565b5050565b6001600160a01b0382166103fc57604051633250574960e11b8152600060048201526024015b60405180910390fd5b6000610409838333610a48565b9050836001600160a01b0316816001600160a01b031614610457576040516364283d7b60e01b81526001600160a01b03808616600483015260248201849052821660448201526064016103f3565b50505050565b61047883838360405180602001604052806000815250610711565b505050565b610485610b41565b60005b818110156104785760088054600091826104a1836118b0565b9190505590506104b18482610b6e565b50806104bc816118b0565b915050610488565b6104cc610b41565b60096103c9828261191d565b60006102fd82610a02565b60006001600160a01b03821661050f576040516322718ad960e21b8152600060048201526024016103f3565b506001600160a01b031660009081526003602052604090205490565b610533610b41565b61053d6000610b88565b565b60606001805461031290611876565b6103c9338383610bda565b6001600160a01b0382166105aa5760405162461bcd60e51b81526020600482015260186024820152775472616e7366657220746f207a65726f206164647265737360401b60448201526064016103f3565b60008151116105f35760405162461bcd60e51b8152602060048201526015602482015274456d70747920746f6b656e2049447320617272617960581b60448201526064016103f3565b60005b815181101561047857336001600160a01b031661062b83838151811061061e5761061e6119dd565b60200260200101516104d8565b6001600160a01b031614806106725750336001600160a01b031661066783838151811061065a5761065a6119dd565b6020026020010151610395565b6001600160a01b0316145b80610696575061069661069083838151811061061e5761061e6119dd565b33610971565b6106db5760405162461bcd60e51b8152602060048201526016602482015275139bdd081bdddb995c881b9bdc88185c1c1c9bdd995960521b60448201526064016103f3565b6106ff33848484815181106106f2576106f26119dd565b602002602001015161045d565b80610709816118b0565b9150506105f6565b61071c8484846103cd565b6104573385858585610c79565b60606102fd82610da4565b61073c610b41565b600880546000918261074d836118b0565b91905055905061075d8382610b6e565b6104788183610ea8565b80518251146107b15760405162461bcd60e51b8152602060048201526016602482015275082e4e4c2f2e640d8cadccee8d040dad2e6dac2e8c6d60531b60448201526064016103f3565b60008251116107f15760405162461bcd60e51b815260206004820152600c60248201526b456d7074792061727261797360a01b60448201526064016103f3565b60005b82518110156104785760006001600160a01b031683828151811061081a5761081a6119dd565b60200260200101516001600160a01b0316036108735760405162461bcd60e51b81526020600482015260186024820152775472616e7366657220746f207a65726f206164647265737360401b60448201526064016103f3565b336001600160a01b031661089283838151811061061e5761061e6119dd565b6001600160a01b031614806108cc5750336001600160a01b03166108c183838151811061065a5761065a6119dd565b6001600160a01b0316145b806108ea57506108ea61069083838151811061061e5761061e6119dd565b61092f5760405162461bcd60e51b8152602060048201526016602482015275139bdd081bdddb995c881b9bdc88185c1c1c9bdd995960521b60448201526064016103f3565b61095f33848381518110610945576109456119dd565b60200260200101518484815181106106f2576106f26119dd565b80610969816118b0565b9150506107f4565b6001600160a01b03918216600090815260056020908152604080832093909416825291909152205460ff1690565b6109a7610b41565b6001600160a01b0381166109d157604051631e4fbdf760e01b8152600060048201526024016103f3565b6109da81610b88565b50565b60006001600160e01b03198216632483248360e11b14806102fd57506102fd82610ef8565b6000818152600260205260408120546001600160a01b0316806102fd57604051637e27328960e01b8152600481018490526024016103f3565b6104788383836001610f48565b6000828152600260205260408120546001600160a01b0390811690831615610a7557610a7581848661104e565b6001600160a01b03811615610ab357610a92600085600080610f48565b6001600160a01b038116600090815260036020526040902080546000190190555b6001600160a01b03851615610ae2576001600160a01b0385166000908152600360205260409020805460010190555b60008481526002602052604080822080546001600160a01b0319166001600160a01b0389811691821790925591518793918516917fddf252ad1be2c89b69c2b068fc378daa952ba7f163c4a11628f55a4df523b3ef91a4949350505050565b6007546001600160a01b0316331461053d5760405163118cdaa760e01b81523360048201526024016103f3565b6103c98282604051806020016040528060008152506110b2565b600780546001600160a01b038381166001600160a01b0319831681179093556040519116919082907f8be0079c531659141344cd1fd0a4f28419497f9722a3daafe3b4186f6b6457e090600090a35050565b6001600160a01b038216610c0c57604051630b61174360e31b81526001600160a01b03831660048201526024016103f3565b6001600160a01b03838116600081815260056020908152604080832094871680845294825291829020805460ff191686151590811790915591519182527f17307eab39ab6107e8899845ad3d59bd9653f200f220920489ca2b5937696c31910160405180910390a3505050565b6001600160a01b0383163b15610d9d57604051630a85bd0160e11b81526001600160a01b0384169063150b7a0290610cbb9088908890879087906004016119f3565b6020604051808303816000875af1925050508015610cf6575060408051601f3d908101601f19168201909252610cf391810190611a30565b60015b610d5f573d808015610d24576040519150601f19603f3d011682016040523d82523d6000602084013e610d29565b606091505b508051600003610d5757604051633250574960e11b81526001600160a01b03851660048201526024016103f3565b805160208201fd5b6001600160e01b03198116630a85bd0160e11b14610d9b57604051633250574960e11b81526001600160a01b03851660048201526024016103f3565b505b5050505050565b6060610daf82610a02565b5060008281526006602052604081208054610dc990611876565b80601f0160208091040260200160405190810160405280929190818152602001828054610df590611876565b8015610e425780601f10610e1757610100808354040283529160200191610e42565b820191906000526020600020905b815481529060010190602001808311610e2557829003601f168201915b505050505090506000610e536110ca565b90508051600003610e65575092915050565b815115610e97578082604051602001610e7f929190611a4d565b60405160208183030381529060405292505050919050565b610ea0846110d9565b949350505050565b6000828152600660205260409020610ec0828261191d565b506040518281527ff8e1a15aba9398e019f0b49df1a4fde98ee17ae345cb5f6b5e2c27f5033e8ce79060200160405180910390a15050565b60006001600160e01b031982166380ac58cd60e01b1480610f2957506001600160e01b03198216635b5e139f60e01b145b806102fd57506301ffc9a760e01b6001600160e01b03198316146102fd565b8080610f5c57506001600160a01b03821615155b1561101e576000610f6c84610a02565b90506001600160a01b03831615801590610f985750826001600160a01b0316816001600160a01b031614155b8015610fab5750610fa98184610971565b155b15610fd45760405163a9fbf51f60e01b81526001600160a01b03841660048201526024016103f3565b811561101c5783856001600160a01b0316826001600160a01b03167f8c5be1e5ebec7d5bd14f71427d1e84f3dd0314c0f7b2291e5b200ac8c7c3b92560405160405180910390a45b505b5050600090815260046020526040902080546001600160a01b0319166001600160a01b0392909216919091179055565b611059838383611141565b610478576001600160a01b03831661108757604051637e27328960e01b8152600481018290526024016103f3565b60405163177e802f60e01b81526001600160a01b0383166004820152602481018290526044016103f3565b6110bc83836111a4565b610478336000858585610c79565b60606009805461031290611876565b60606110e482610a02565b5060006110ef6110ca565b9050600081511161110f576040518060200160405280600081525061113a565b8061111984611209565b60405160200161112a929190611a4d565b6040516020818303038152906040525b9392505050565b60006001600160a01b03831615801590610ea05750826001600160a01b0316846001600160a01b0316148061117b575061117b8484610971565b80610ea05750506000908152600460205260409020546001600160a01b03908116911614919050565b6001600160a01b0382166111ce57604051633250574960e11b8152600060048201526024016103f3565b60006111dc83836000610a48565b90506001600160a01b03811615610478576040516339e3563760e11b8152600060048201526024016103f3565b606060006112168361129c565b600101905060008167ffffffffffffffff811115611236576112366114a5565b6040519080825280601f01601f191660200182016040528015611260576020820181803683370190505b5090508181016020015b600019016f181899199a1a9b1b9c1cb0b131b232b360811b600a86061a8153600a850494508461126a57509392505050565b60008072184f03e93ff9f4daa797ed6e38ed64bf6a1f0160401b83106112db5772184f03e93ff9f4daa797ed6e38ed64bf6a1f0160401b830492506040015b6d04ee2d6d415b85acef81000000008310611307576d04ee2d6d415b85acef8100000000830492506020015b662386f26fc10000831061132557662386f26fc10000830492506010015b6305f5e100831061133d576305f5e100830492506008015b612710831061135157612710830492506004015b60648310611363576064830492506002015b600a83106102fd5760010192915050565b6001600160e01b0319811681146109da57600080fd5b60006020828403121561139c57600080fd5b813561113a81611374565b60005b838110156113c25781810151838201526020016113aa565b50506000910152565b600081518084526113e38160208601602086016113a7565b601f01601f19169290920160200192915050565b60208152600061113a60208301846113cb565b60006020828403121561141c57600080fd5b5035919050565b80356001600160a01b038116811461143a57600080fd5b919050565b6000806040838503121561145257600080fd5b61145b83611423565b946020939093013593505050565b60008060006060848603121561147e57600080fd5b61148784611423565b925061149560208501611423565b9150604084013590509250925092565b634e487b7160e01b600052604160045260246000fd5b604051601f8201601f1916810167ffffffffffffffff811182821017156114e4576114e46114a5565b604052919050565b600067ffffffffffffffff831115611506576115066114a5565b611519601f8401601f19166020016114bb565b905082815283838301111561152d57600080fd5b828260208301376000602084830101529392505050565b600082601f83011261155557600080fd5b61113a838335602085016114ec565b60006020828403121561157657600080fd5b813567ffffffffffffffff81111561158d57600080fd5b610ea084828501611544565b6000602082840312156115ab57600080fd5b61113a82611423565b600080604083850312156115c757600080fd5b6115d083611423565b9150602083013580151581146115e557600080fd5b809150509250929050565b600067ffffffffffffffff82111561160a5761160a6114a5565b5060051b60200190565b600082601f83011261162557600080fd5b8135602061163a611635836115f0565b6114bb565b82815260059290921b8401810191818101908684111561165957600080fd5b8286015b84811015611674578035835291830191830161165d565b509695505050505050565b6000806040838503121561169257600080fd5b61169b83611423565b9150602083013567ffffffffffffffff8111156116b757600080fd5b6116c385828601611614565b9150509250929050565b600080600080608085870312156116e357600080fd5b6116ec85611423565b93506116fa60208601611423565b925060408501359150606085013567ffffffffffffffff81111561171d57600080fd5b8501601f8101871361172e57600080fd5b61173d878235602084016114ec565b91505092959194509250565b6000806040838503121561175c57600080fd5b61176583611423565b9150602083013567ffffffffffffffff81111561178157600080fd5b6116c385828601611544565b600080604083850312156117a057600080fd5b823567ffffffffffffffff808211156117b857600080fd5b818501915085601f8301126117cc57600080fd5b813560206117dc611635836115f0565b82815260059290921b840181019181810190898411156117fb57600080fd5b948201945b838610156118205761181186611423565b82529482019490820190611800565b9650508601359250508082111561183657600080fd5b506116c385828601611614565b6000806040838503121561185657600080fd5b61185f83611423565b915061186d60208401611423565b90509250929050565b600181811c9082168061188a57607f821691505b6020821081036118aa57634e487b7160e01b600052602260045260246000fd5b50919050565b6000600182016118d057634e487b7160e01b600052601160045260246000fd5b5060010190565b601f82111561047857600081815260208120601f850160051c810160208610156118fe5750805b601f850160051c820191505b81811015610d9b5782815560010161190a565b815167ffffffffffffffff811115611937576119376114a5565b61194b816119458454611876565b846118d7565b602080601f83116001811461198057600084156119685750858301515b600019600386901b1c1916600185901b178555610d9b565b600085815260208120601f198616915b828110156119af57888601518255948401946001909101908401611990565b50858210156119cd5787850151600019600388901b60f8161c191681555b5050505050600190811b01905550565b634e487b7160e01b600052603260045260246000fd5b6001600160a01b0385811682528416602082015260408101839052608060608201819052600090611a26908301846113cb565b9695505050505050565b600060208284031215611a4257600080fd5b815161113a81611374565b60008351611a5f8184602088016113a7565b835190830190611a738183602088016113a7565b0194935050505056fea26469706673582212205a26494e4aa992956c4643144b7735da0f1b36bfd002d2bf63ddb13c03e8740b64736f6c6343000814003360806040523480156200001157600080fd5b50604051620013e4380380620013e4833981016040819052620000349162000361565b33848460036200004583826200047d565b5060046200005482826200047d565b5050506001600160a01b0381166200008757604051631e4fbdf760e01b8152600060048201526024015b60405180910390fd5b6200009281620000d9565b506005805460ff60a01b1916600160a01b60ff841602179055620000cf33620000bd83600a6200065e565b620000c9908562000676565b6200012b565b50505050620006a6565b600580546001600160a01b038381166001600160a01b0319831681179093556040519116919082907f8be0079c531659141344cd1fd0a4f28419497f9722a3daafe3b4186f6b6457e090600090a35050565b6001600160a01b038216620001575760405163ec442f0560e01b8152600060048201526024016200007e565b620001656000838362000169565b5050565b6001600160a01b038316620001985780600260008282546200018c919062000690565b909155506200020c9050565b6001600160a01b03831660009081526020819052604090205481811015620001ed5760405163391434e360e21b81526001600160a01b038516600482015260248101829052604481018390526064016200007e565b6001600160a01b03841660009081526020819052604090209082900390555b6001600160a01b0382166200022a5760028054829003905562000249565b6001600160a01b03821660009081526020819052604090208054820190555b816001600160a01b0316836001600160a01b03167fddf252ad1be2c89b69c2b068fc378daa952ba7f163c4a11628f55a4df523b3ef836040516200028f91815260200190565b60405180910390a3505050565b634e487b7160e01b600052604160045260246000fd5b600082601f830112620002c457600080fd5b81516001600160401b0380821115620002e157620002e16200029c565b604051601f8301601f19908116603f011681019082821181831017156200030c576200030c6200029c565b816040528381526020925086838588010111156200032957600080fd5b600091505b838210156200034d57858201830151818301840152908201906200032e565b600093810190920192909252949350505050565b600080600080608085870312156200037857600080fd5b84516001600160401b03808211156200039057600080fd5b6200039e88838901620002b2565b95506020870151915080821115620003b557600080fd5b50620003c487828801620002b2565b93505060408501519150606085015160ff81168114620003e357600080fd5b939692955090935050565b600181811c908216806200040357607f821691505b6020821081036200042457634e487b7160e01b600052602260045260246000fd5b50919050565b601f8211156200047857600081815260208120601f850160051c81016020861015620004535750805b601f850160051c820191505b8181101562000474578281556001016200045f565b5050505b505050565b81516001600160401b038111156200049957620004996200029c565b620004b181620004aa8454620003ee565b846200042a565b602080601f831160018114620004e95760008415620004d05750858301515b600019600386901b1c1916600185901b17855562000474565b600085815260208120601f198616915b828110156200051a57888601518255948401946001909101908401620004f9565b5085821015620005395787850151600019600388901b60f8161c191681555b5050505050600190811b01905550565b634e487b7160e01b600052601160045260246000fd5b600181815b80851115620005a057816000190482111562000584576200058462000549565b808516156200059257918102915b93841c939080029062000564565b509250929050565b600082620005b95750600162000658565b81620005c85750600062000658565b8160018114620005e15760028114620005ec576200060c565b600191505062000658565b60ff84111562000600576200060062000549565b50506001821b62000658565b5060208310610133831016604e8410600b841016171562000631575081810a62000658565b6200063d83836200055f565b806000190482111562000654576200065462000549565b0290505b92915050565b60006200066f60ff841683620005a8565b9392505050565b808202811582820484141762000658576200065862000549565b8082018082111562000658576200065862000549565b610d2e80620006b66000396000f3fe608060405234801561001057600080fd5b50600436106100f55760003560e01c806370a082311161009757806395d89b411161006657806395d89b4114610206578063a9059cbb1461020e578063dd62ed3e14610221578063f2fde38b1461025a57600080fd5b806370a08231146101a7578063715018a6146101d057806388d695b2146101d85780638da5cb5b146101eb57600080fd5b806323b872dd116100d357806323b872dd1461014d578063313ce5671461016057806340c10f191461017f57806342966c681461019457600080fd5b806306fdde03146100fa578063095ea7b31461011857806318160ddd1461013b575b600080fd5b61010261026d565b60405161010f9190610992565b60405180910390f35b61012b6101263660046109fc565b6102ff565b604051901515815260200161010f565b6002545b60405190815260200161010f565b61012b61015b366004610a26565b610319565b600554600160a01b900460ff1660405160ff909116815260200161010f565b61019261018d3660046109fc565b61033d565b005b6101926101a2366004610a62565b610353565b61013f6101b5366004610a7b565b6001600160a01b031660009081526020819052604090205490565b610192610360565b61012b6101e6366004610b73565b610374565b6005546040516001600160a01b03909116815260200161010f565b610102610560565b61012b61021c3660046109fc565b61056f565b61013f61022f366004610c33565b6001600160a01b03918216600090815260016020908152604080832093909416825291909152205490565b610192610268366004610a7b565b61057d565b60606003805461027c90610c66565b80601f01602080910402602001604051908101604052809291908181526020018280546102a890610c66565b80156102f55780601f106102ca576101008083540402835291602001916102f5565b820191906000526020600020905b8154815290600101906020018083116102d857829003601f168201915b5050505050905090565b60003361030d8185856105b8565b60019150505b92915050565b6000336103278582856105ca565b610332858585610649565b506001949350505050565b6103456106a8565b61034f82826106d5565b5050565b61035d338261070b565b50565b6103686106a8565b6103726000610741565b565b600081518351146103c55760405162461bcd60e51b8152602060048201526016602482015275082e4e4c2f2e640d8cadccee8d040dad2e6dac2e8c6d60531b60448201526064015b60405180910390fd5b60008351116104055760405162461bcd60e51b815260206004820152600c60248201526b456d7074792061727261797360a01b60448201526064016103bc565b60005b83518110156105565760006001600160a01b031684828151811061042e5761042e610ca0565b60200260200101516001600160a01b03160361048c5760405162461bcd60e51b815260206004820152601860248201527f5472616e7366657220746f207a65726f2061646472657373000000000000000060448201526064016103bc565b60008382815181106104a0576104a0610ca0565b6020026020010151116105075760405162461bcd60e51b815260206004820152602960248201527f5472616e7366657220616d6f756e74206d7573742062652067726561746572206044820152687468616e207a65726f60b81b60648201526084016103bc565b6105443385838151811061051d5761051d610ca0565b602002602001015185848151811061053757610537610ca0565b6020026020010151610649565b8061054e81610ccc565b915050610408565b5060019392505050565b60606004805461027c90610c66565b60003361030d818585610649565b6105856106a8565b6001600160a01b0381166105af57604051631e4fbdf760e01b8152600060048201526024016103bc565b61035d81610741565b6105c58383836001610793565b505050565b6001600160a01b03838116600090815260016020908152604080832093861683529290522054600019811015610643578181101561063457604051637dc7a0d960e11b81526001600160a01b038416600482015260248101829052604481018390526064016103bc565b61064384848484036000610793565b50505050565b6001600160a01b03831661067357604051634b637e8f60e11b8152600060048201526024016103bc565b6001600160a01b03821661069d5760405163ec442f0560e01b8152600060048201526024016103bc565b6105c5838383610868565b6005546001600160a01b031633146103725760405163118cdaa760e01b81523360048201526024016103bc565b6001600160a01b0382166106ff5760405163ec442f0560e01b8152600060048201526024016103bc565b61034f60008383610868565b6001600160a01b03821661073557604051634b637e8f60e11b8152600060048201526024016103bc565b61034f82600083610868565b600580546001600160a01b038381166001600160a01b0319831681179093556040519116919082907f8be0079c531659141344cd1fd0a4f28419497f9722a3daafe3b4186f6b6457e090600090a35050565b6001600160a01b0384166107bd5760405163e602df0560e01b8152600060048201526024016103bc565b6001600160a01b0383166107e757604051634a1406b160e11b8152600060048201526024016103bc565b6001600160a01b038085166000908152600160209081526040808320938716835292905220829055801561064357826001600160a01b0316846001600160a01b03167f8c5be1e5ebec7d5bd14f71427d1e84f3dd0314c0f7b2291e5b200ac8c7c3b9258460405161085a91815260200190565b60405180910390a350505050565b6001600160a01b0383166108935780600260008282546108889190610ce5565b909155506109059050565b6001600160a01b038316600090815260208190526040902054818110156108e65760405163391434e360e21b81526001600160a01b038516600482015260248101829052604481018390526064016103bc565b6001600160a01b03841660009081526020819052604090209082900390555b6001600160a01b03821661092157600280548290039055610940565b6001600160a01b03821660009081526020819052604090208054820190555b816001600160a01b0316836001600160a01b03167fddf252ad1be2c89b69c2b068fc378daa952ba7f163c4a11628f55a4df523b3ef8360405161098591815260200190565b60405180910390a3505050565b600060208083528351808285015260005b818110156109bf578581018301518582016040015282016109a3565b506000604082860101526040601f19601f8301168501019250505092915050565b80356001600160a01b03811681146109f757600080fd5b919050565b60008060408385031215610a0f57600080fd5b610a18836109e0565b946020939093013593505050565b600080600060608486031215610a3b57600080fd5b610a44846109e0565b9250610a52602085016109e0565b9150604084013590509250925092565b600060208284031215610a7457600080fd5b5035919050565b600060208284031215610a8d57600080fd5b610a96826109e0565b9392505050565b634e487b7160e01b600052604160045260246000fd5b604051601f8201601f1916810167ffffffffffffffff81118282101715610adc57610adc610a9d565b604052919050565b600067ffffffffffffffff821115610afe57610afe610a9d565b5060051b60200190565b600082601f830112610b1957600080fd5b81356020610b2e610b2983610ae4565b610ab3565b82815260059290921b84018101918181019086841115610b4d57600080fd5b8286015b84811015610b685780358352918301918301610b51565b509695505050505050565b60008060408385031215610b8657600080fd5b823567ffffffffffffffff80821115610b9e57600080fd5b818501915085601f830112610bb257600080fd5b81356020610bc2610b2983610ae4565b82815260059290921b84018101918181019089841115610be157600080fd5b948201945b83861015610c0657610bf7866109e0565b82529482019490820190610be6565b96505086013592505080821115610c1c57600080fd5b50610c2985828601610b08565b9150509250929050565b60008060408385031215610c4657600080fd5b610c4f836109e0565b9150610c5d602084016109e0565b90509250929050565b600181811c90821680610c7a57607f821691505b602082108103610c9a57634e487b7160e01b600052602260045260246000fd5b50919050565b634e487b7160e01b600052603260045260246000fd5b634e487b7160e01b600052601160045260246000fd5b600060018201610cde57610cde610cb6565b5060010190565b8082018082111561031357610313610cb656fea26469706673582212206717057961a96935e4c2d1ba47c6abbafaab7345d1299b8513ef3ce380fe73e764736f6c6343000814003360806040523480156200001157600080fd5b506040516200237f3803806200237f8339810160408190526200003491620001cd565b33816200004181620000a4565b506001600160a01b0381166200007157604051631e4fbdf760e01b81526000600482015260240160405180910390fd5b6200007c81620000b6565b5060066200008b8482620002ed565b5060076200009a8382620002ed565b50505050620003b9565b6002620000b28282620002ed565b5050565b600580546001600160a01b038381166001600160a01b0319831681179093556040519116919082907f8be0079c531659141344cd1fd0a4f28419497f9722a3daafe3b4186f6b6457e090600090a35050565b634e487b7160e01b600052604160045260246000fd5b600082601f8301126200013057600080fd5b81516001600160401b03808211156200014d576200014d62000108565b604051601f8301601f19908116603f0116810190828211818310171562000178576200017862000108565b816040528381526020925086838588010111156200019557600080fd5b600091505b83821015620001b957858201830151818301840152908201906200019a565b600093810190920192909252949350505050565b600080600060608486031215620001e357600080fd5b83516001600160401b0380821115620001fb57600080fd5b62000209878388016200011e565b945060208601519150808211156200022057600080fd5b6200022e878388016200011e565b935060408601519150808211156200024557600080fd5b5062000254868287016200011e565b9150509250925092565b600181811c908216806200027357607f821691505b6020821081036200029457634e487b7160e01b600052602260045260246000fd5b50919050565b601f821115620002e857600081815260208120601f850160051c81016020861015620002c35750805b601f850160051c820191505b81811015620002e457828155600101620002cf565b5050505b505050565b81516001600160401b0381111562000309576200030962000108565b62000321816200031a84546200025e565b846200029a565b602080601f831160018114620003595760008415620003405750858301515b600019600386901b1c1916600185901b178555620002e4565b600085815260208120601f198616915b828110156200038a5788860151825594840194600190910190840162000369565b5085821015620003a95787850151600019600388901b60f8161c191681555b5050505050600190811b01905550565b611fb680620003c96000396000f3fe608060405234801561001057600080fd5b50600436106101725760003560e01c8063715018a6116100de578063bd85b03911610097578063e985e9c511610071578063e985e9c514610332578063f242432a14610345578063f2fde38b14610358578063f5298aca1461036b57600080fd5b8063bd85b039146102f7578063caa0f92a14610317578063e38e3b241461031f57600080fd5b8063715018a614610293578063731133e91461029b578063810669d7146102ae5780638da5cb5b146102c157806395d89b41146102dc578063a22cb465146102e457600080fd5b806318160ddd1161013057806318160ddd146102105780631f7fdffa146102185780632eb2c2d61461022b5780634e1273f41461023e5780634f558e791461025e5780636b20c4541461028057600080fd5b8062fdd58e1461017757806301ffc9a71461019d57806302fe5305146101c057806306fdde03146101d55780630e89341c146101ea578063162094c4146101fd575b600080fd5b61018a610185366004611521565b61037e565b6040519081526020015b60405180910390f35b6101b06101ab366004611561565b6103a6565b6040519015158152602001610194565b6101d36101ce36600461163a565b6103f6565b005b6101dd61040a565b60405161019491906116be565b6101dd6101f83660046116d1565b610498565b6101d361020b3660046116ea565b6105a4565b60045461018a565b6101d36102263660046117be565b6105c9565b6101d3610239366004611856565b6105e3565b61025161024c366004611961565b61064f565b60405161019491906119f5565b6101b061026c3660046116d1565b600090815260036020526040902054151590565b6101d361028e366004611a08565b610723565b6101d3610766565b6101d36102a9366004611a7b565b61077a565b6101d36102bc366004611acf565b61078e565b6005546040516001600160a01b039091168152602001610194565b6101dd6108aa565b6101d36102f2366004611b1d565b6108b7565b61018a6103053660046116d1565b60009081526003602052604090205490565b60085461018a565b61018a61032d366004611b59565b6108c6565b6101b0610340366004611ba7565b61091d565b6101d3610353366004611bda565b61094b565b6101d3610366366004611c3e565b6109aa565b6101d3610379366004611c59565b6109e5565b6000818152602081815260408083206001600160a01b03861684529091529020545b92915050565b60006001600160e01b03198216636cdb3d1360e11b14806103d757506001600160e01b031982166303a24d0760e21b145b806103a057506301ffc9a760e01b6001600160e01b03198316146103a0565b6103fe610a28565b61040781610a55565b50565b6006805461041790611c8c565b80601f016020809104026020016040519081016040528092919081815260200182805461044390611c8c565b80156104905780601f1061046557610100808354040283529160200191610490565b820191906000526020600020905b81548152906001019060200180831161047357829003601f168201915b505050505081565b6000818152600960205260408120805460609291906104b690611c8c565b80601f01602080910402602001604051908101604052809291908181526020018280546104e290611c8c565b801561052f5780601f106105045761010080835404028352916020019161052f565b820191906000526020600020905b81548152906001019060200180831161051257829003601f168201915b505050505090506000815111156105465792915050565b600061055184610a61565b90506000815111610571576040518060200160405280600081525061059c565b8061057b85610af5565b60405160200161058c929190611cc6565b6040516020818303038152906040525b949350505050565b6105ac610a28565b60008281526009602052604090206105c48282611d3b565b505050565b6105d1610a28565b6105dd84848484610b87565b50505050565b336001600160a01b03861681148015906106045750610602868261091d565b155b1561063a5760405163711bec9160e11b81526001600160a01b038083166004830152871660248201526044015b60405180910390fd5b6106478686868686610bbf565b505050505050565b606081518351146106805781518351604051635b05999160e01b815260048101929092526024820152604401610631565b600083516001600160401b0381111561069b5761069b611585565b6040519080825280602002602001820160405280156106c4578160200160208202803683370190505b50905060005b845181101561071b576020808202860101516106ee9060208084028701015161037e565b82828151811061070057610700611dfa565b602090810291909101015261071481611e26565b90506106ca565b509392505050565b6001600160a01b03831633148061073f575061073f833361091d565b61075b5760405162461bcd60e51b815260040161063190611e3f565b6105c4838383610c26565b61076e610a28565b6107786000610c6c565b565b610782610a28565b6105dd84848484610cbe565b815183511480156107a0575080518251145b6107e55760405162461bcd60e51b8152602060048201526016602482015275082e4e4c2f2e640d8cadccee8d040dad2e6dac2e8c6d60531b6044820152606401610631565b60008351116108255760405162461bcd60e51b815260206004820152600c60248201526b456d7074792061727261797360a01b6044820152606401610631565b60005b83518110156105dd576108983385838151811061084757610847611dfa565b602002602001015185848151811061086157610861611dfa565b602002602001015185858151811061087b5761087b611dfa565b60200260200101516040518060200160405280600081525061094b565b806108a281611e26565b915050610828565b6007805461041790611c8c565b6108c2338383610d1b565b5050565b60006108d0610a28565b60088054600091826108e183611e26565b9190505590506108f386828786610cbe565b8351156109145760008181526009602052604090206109128582611d3b565b505b95945050505050565b6001600160a01b03918216600090815260016020908152604080832093909416825291909152205460ff1690565b336001600160a01b038616811480159061096c575061096a868261091d565b155b1561099d5760405163711bec9160e11b81526001600160a01b03808316600483015287166024820152604401610631565b6106478686868686610db1565b6109b2610a28565b6001600160a01b0381166109dc57604051631e4fbdf760e01b815260006004820152602401610631565b61040781610c6c565b6001600160a01b038316331480610a015750610a01833361091d565b610a1d5760405162461bcd60e51b815260040161063190611e3f565b6105c4838383610e3f565b6005546001600160a01b031633146107785760405163118cdaa760e01b8152336004820152602401610631565b60026108c28282611d3b565b606060028054610a7090611c8c565b80601f0160208091040260200160405190810160405280929190818152602001828054610a9c90611c8c565b8015610ae95780601f10610abe57610100808354040283529160200191610ae9565b820191906000526020600020905b815481529060010190602001808311610acc57829003601f168201915b50505050509050919050565b60606000610b0283610ea7565b60010190506000816001600160401b03811115610b2157610b21611585565b6040519080825280601f01601f191660200182016040528015610b4b576020820181803683370190505b5090508181016020015b600019016f181899199a1a9b1b9c1cb0b131b232b360811b600a86061a8153600a8504945084610b5557509392505050565b6001600160a01b038416610bb157604051632bfa23e760e11b815260006004820152602401610631565b6105dd600085858585610f7f565b6001600160a01b038416610be957604051632bfa23e760e11b815260006004820152602401610631565b6001600160a01b038516610c1257604051626a0d4560e21b815260006004820152602401610631565b610c1f8585858585610f7f565b5050505050565b6001600160a01b038316610c4f57604051626a0d4560e21b815260006004820152602401610631565b6105c4836000848460405180602001604052806000815250610f7f565b600580546001600160a01b038381166001600160a01b0319831681179093556040519116919082907f8be0079c531659141344cd1fd0a4f28419497f9722a3daafe3b4186f6b6457e090600090a35050565b6001600160a01b038416610ce857604051632bfa23e760e11b815260006004820152602401610631565b60408051600180825260208201869052818301908152606082018590526080820190925290610647600087848487610f7f565b6001600160a01b038216610d445760405162ced3e160e81b815260006004820152602401610631565b6001600160a01b03838116600081815260016020908152604080832094871680845294825291829020805460ff191686151590811790915591519182527f17307eab39ab6107e8899845ad3d59bd9653f200f220920489ca2b5937696c31910160405180910390a3505050565b6001600160a01b038416610ddb57604051632bfa23e760e11b815260006004820152602401610631565b6001600160a01b038516610e0457604051626a0d4560e21b815260006004820152602401610631565b60408051600180825260208201869052818301908152606082018590526080820190925290610e368787848487610f7f565b50505050505050565b6001600160a01b038316610e6857604051626a0d4560e21b815260006004820152602401610631565b604080516001808252602082018590528183019081526060820184905260a08201909252600060808201818152919291610c1f91879185908590610f7f565b60008072184f03e93ff9f4daa797ed6e38ed64bf6a1f0160401b8310610ee65772184f03e93ff9f4daa797ed6e38ed64bf6a1f0160401b830492506040015b6d04ee2d6d415b85acef81000000008310610f12576d04ee2d6d415b85acef8100000000830492506020015b662386f26fc100008310610f3057662386f26fc10000830492506010015b6305f5e1008310610f48576305f5e100830492506008015b6127108310610f5c57612710830492506004015b60648310610f6e576064830492506002015b600a83106103a05760010192915050565b610f8b85858585610fd2565b6001600160a01b03841615610c1f5782513390600103610fc45760208481015190840151610fbd838989858589610fde565b5050610647565b610647818787878787611102565b6105dd848484846111eb565b6001600160a01b0384163b156106475760405163f23a6e6160e01b81526001600160a01b0385169063f23a6e61906110229089908990889088908890600401611e88565b6020604051808303816000875af192505050801561105d575060408051601f3d908101601f1916820190925261105a91810190611ecd565b60015b6110c6573d80801561108b576040519150601f19603f3d011682016040523d82523d6000602084013e611090565b606091505b5080516000036110be57604051632bfa23e760e11b81526001600160a01b0386166004820152602401610631565b805160208201fd5b6001600160e01b0319811663f23a6e6160e01b14610e3657604051632bfa23e760e11b81526001600160a01b0386166004820152602401610631565b6001600160a01b0384163b156106475760405163bc197c8160e01b81526001600160a01b0385169063bc197c81906111469089908990889088908890600401611eea565b6020604051808303816000875af1925050508015611181575060408051601f3d908101601f1916820190925261117e91810190611ecd565b60015b6111af573d80801561108b576040519150601f19603f3d011682016040523d82523d6000602084013e611090565b6001600160e01b0319811663bc197c8160e01b14610e3657604051632bfa23e760e11b81526001600160a01b0386166004820152602401610631565b6111f7848484846112e8565b6001600160a01b038416611280576000805b83518110156112665760208181028481018201519086018201516000908152600390925260408220805491928392611242908490611f48565b9091555061125290508184611f48565b9250508061125f90611e26565b9050611209565b5080600460008282546112799190611f48565b9091555050505b6001600160a01b0383166105dd576000805b83518110156112d75760208181028481018201519086018201516000908152600390925260409091208054829003905591909101906112d081611e26565b9050611292565b506004805491909103905550505050565b80518251146113175781518151604051635b05999160e01b815260048101929092526024820152604401610631565b3360005b8351811015611426576020818102858101820151908501909101516001600160a01b038816156113ce576000828152602081815260408083206001600160a01b038c168452909152902054818110156113a7576040516303dee4c560e01b81526001600160a01b038a166004820152602481018290526044810183905260648101849052608401610631565b6000838152602081815260408083206001600160a01b038d16845290915290209082900390555b6001600160a01b03871615611413576000828152602081815260408083206001600160a01b038b1684529091528120805483929061140d908490611f48565b90915550505b50508061141f90611e26565b905061131b565b5082516001036114a75760208301516000906020840151909150856001600160a01b0316876001600160a01b0316846001600160a01b03167fc3d58168c5ae7397731d063d5bbf3d657854427343f4c083240f7aacaa2d0f628585604051611498929190918252602082015260400190565b60405180910390a45050610c1f565b836001600160a01b0316856001600160a01b0316826001600160a01b03167f4a39dc06d4c0dbc64b70af90fd698a233a518aa5d07e595d983b8c0526c8f7fb86866040516114f6929190611f5b565b60405180910390a45050505050565b80356001600160a01b038116811461151c57600080fd5b919050565b6000806040838503121561153457600080fd5b61153d83611505565b946020939093013593505050565b6001600160e01b03198116811461040757600080fd5b60006020828403121561157357600080fd5b813561157e8161154b565b9392505050565b634e487b7160e01b600052604160045260246000fd5b604051601f8201601f191681016001600160401b03811182821017156115c3576115c3611585565b604052919050565b600082601f8301126115dc57600080fd5b81356001600160401b038111156115f5576115f5611585565b611608601f8201601f191660200161159b565b81815284602083860101111561161d57600080fd5b816020850160208301376000918101602001919091529392505050565b60006020828403121561164c57600080fd5b81356001600160401b0381111561166257600080fd5b61059c848285016115cb565b60005b83811015611689578181015183820152602001611671565b50506000910152565b600081518084526116aa81602086016020860161166e565b601f01601f19169290920160200192915050565b60208152600061157e6020830184611692565b6000602082840312156116e357600080fd5b5035919050565b600080604083850312156116fd57600080fd5b8235915060208301356001600160401b0381111561171a57600080fd5b611726858286016115cb565b9150509250929050565b60006001600160401b0382111561174957611749611585565b5060051b60200190565b600082601f83011261176457600080fd5b8135602061177961177483611730565b61159b565b82815260059290921b8401810191818101908684111561179857600080fd5b8286015b848110156117b3578035835291830191830161179c565b509695505050505050565b600080600080608085870312156117d457600080fd5b6117dd85611505565b935060208501356001600160401b03808211156117f957600080fd5b61180588838901611753565b9450604087013591508082111561181b57600080fd5b61182788838901611753565b9350606087013591508082111561183d57600080fd5b5061184a878288016115cb565b91505092959194509250565b600080600080600060a0868803121561186e57600080fd5b61187786611505565b945061188560208701611505565b935060408601356001600160401b03808211156118a157600080fd5b6118ad89838a01611753565b945060608801359150808211156118c357600080fd5b6118cf89838a01611753565b935060808801359150808211156118e557600080fd5b506118f2888289016115cb565b9150509295509295909350565b600082601f83011261191057600080fd5b8135602061192061177483611730565b82815260059290921b8401810191818101908684111561193f57600080fd5b8286015b848110156117b35761195481611505565b8352918301918301611943565b6000806040838503121561197457600080fd5b82356001600160401b038082111561198b57600080fd5b611997868387016118ff565b935060208501359150808211156119ad57600080fd5b5061172685828601611753565b600081518084526020808501945080840160005b838110156119ea578151875295820195908201906001016119ce565b509495945050505050565b60208152600061157e60208301846119ba565b600080600060608486031215611a1d57600080fd5b611a2684611505565b925060208401356001600160401b0380821115611a4257600080fd5b611a4e87838801611753565b93506040860135915080821115611a6457600080fd5b50611a7186828701611753565b9150509250925092565b60008060008060808587031215611a9157600080fd5b611a9a85611505565b9350602085013592506040850135915060608501356001600160401b03811115611ac357600080fd5b61184a878288016115cb565b600080600060608486031215611ae457600080fd5b83356001600160401b0380821115611afb57600080fd5b611b07878388016118ff565b94506020860135915080821115611a4257600080fd5b60008060408385031215611b3057600080fd5b611b3983611505565b915060208301358015158114611b4e57600080fd5b809150509250929050565b60008060008060808587031215611b6f57600080fd5b611b7885611505565b93506020850135925060408501356001600160401b0380821115611b9b57600080fd5b611827888389016115cb565b60008060408385031215611bba57600080fd5b611bc383611505565b9150611bd160208401611505565b90509250929050565b600080600080600060a08688031215611bf257600080fd5b611bfb86611505565b9450611c0960208701611505565b9350604086013592506060860135915060808601356001600160401b03811115611c3257600080fd5b6118f2888289016115cb565b600060208284031215611c5057600080fd5b61157e82611505565b600080600060608486031215611c6e57600080fd5b611c7784611505565b95602085013595506040909401359392505050565b600181811c90821680611ca057607f821691505b602082108103611cc057634e487b7160e01b600052602260045260246000fd5b50919050565b60008351611cd881846020880161166e565b835190830190611cec81836020880161166e565b01949350505050565b601f8211156105c457600081815260208120601f850160051c81016020861015611d1c5750805b601f850160051c820191505b8181101561064757828155600101611d28565b81516001600160401b03811115611d5457611d54611585565b611d6881611d628454611c8c565b84611cf5565b602080601f831160018114611d9d5760008415611d855750858301515b600019600386901b1c1916600185901b178555610647565b600085815260208120601f198616915b82811015611dcc57888601518255948401946001909101908401611dad565b5085821015611dea5787850151600019600388901b60f8161c191681555b5050505050600190811b01905550565b634e487b7160e01b600052603260045260246000fd5b634e487b7160e01b600052601160045260246000fd5b600060018201611e3857611e38611e10565b5060010190565b60208082526029908201527f455243313135353a2063616c6c6572206973206e6f74206f776e6572206e6f7260408201526808185c1c1c9bdd995960ba1b606082015260800190565b6001600160a01b03868116825285166020820152604081018490526060810183905260a060808201819052600090611ec290830184611692565b979650505050505050565b600060208284031215611edf57600080fd5b815161157e8161154b565b6001600160a01b0386811682528516602082015260a060408201819052600090611f16908301866119ba565b8281036060840152611f2881866119ba565b90508281036080840152611f3c8185611692565b98975050505050505050565b808201808211156103a0576103a0611e10565b604081526000611f6e60408301856119ba565b828103602084015261091481856119ba56fea26469706673582212204ff01dc4cad212ed2d8317c895ed2df0638a746e89d0670a9b7c2cf7b9e25afb64736f6c63430008140033a2646970667358221220eb07987850ef956e6350d42f3065a6a3b6e93841defe3e4704888a3012fc32d964736f6c63430008140033",
  "linkReferences": {},
  "deployedLinkReferences": {}
}