{
  "_format": "hh-sol-artifact-1",
  "contractName": "MyERC1155Token",
  "sourceName": "contracts/MyERC1155Token.sol",
  "abi": [
    {
      "inputs": [
        {
          "internalType": "address",
          "name": "initialOwner",
          "type": "address"
        }
      ],
      "stateMutability": "nonpayable",
      "type": "constructor"
    },
    {
      "inputs": [
        {
          "internalType": "address",
          "name": "sender",
          "type": "address"
        },
        {
          "internalType": "uint256",
          "name": "balance",
          "type": "uint256"
        },
        {
          "internalType": "uint256",
          "name": "needed",
          "type": "uint256"
        },
        {
          "internalType": "uint256",
          "name": "tokenId",
          "type": "uint256"
        }
      ],
      "name": "ERC1155InsufficientBalance",
      "type": "error"
    },
    {
      "inputs": [
        {
          "internalType": "address",
          "name": "approver",
          "type": "address"
        }
      ],
      "name": "ERC1155InvalidApprover",
      "type": "error"
    },
    {
      "inputs": [
        {
          "internalType": "uint256",
          "name": "idsLength",
          "type": "uint256"
        },
        {
          "internalType": "uint256",
          "name": "valuesLength",
          "type": "uint256"
        }
      ],
      "name": "ERC1155InvalidArrayLength",
      "type": "error"
    },
    {
      "inputs": [
        {
          "internalType": "address",
          "name": "operator",
          "type": "address"
        }
      ],
      "name": "ERC1155InvalidOperator",
      "type": "error"
    },
    {
      "inputs": [
        {
          "internalType": "address",
          "name": "receiver",
          "type": "address"
        }
      ],
      "name": "ERC1155InvalidReceiver",
      "type": "error"
    },
    {
      "inputs": [
        {
          "internalType": "address",
          "name": "sender",
          "type": "address"
        }
      ],
      "name": "ERC1155InvalidSender",
      "type": "error"
    },
    {
      "inputs": [
        {
          "internalType": "address",
          "name": "operator",
          "type": "address"
        },
        {
          "internalType": "address",
          "name": "owner",
          "type": "address"
        }
      ],
      "name": "ERC1155MissingApprovalForAll",
      "type": "error"
    },
    {
      "inputs": [
        {
          "internalType": "address",
          "name": "owner",
          "type": "address"
        }
      ],
      "name": "OwnableInvalidOwner",
      "type": "error"
    },
    {
      "inputs": [
        {
          "internalType": "address",
          "name": "account",
          "type": "address"
        }
      ],
      "name": "OwnableUnauthorizedAccount",
      "type": "error"
    },
    {
      "anonymous": false,
      "inputs": [
        {
          "indexed": true,
          "internalType": "address",
          "name": "account",
          "type": "address"
        },
        {
          "indexed": true,
          "internalType": "address",
          "name": "operator",
          "type": "address"
        },
        {
          "indexed": false,
          "internalType": "bool",
          "name": "approved",
          "type": "bool"
        }
      ],
      "name": "ApprovalForAll",
      "type": "event"
    },
    {
      "anonymous": false,
      "inputs": [
        {
          "indexed": true,
          "internalType": "address",
          "name": "previousOwner",
          "type": "address"
        },
        {
          "indexed": true,
          "internalType": "address",
          "name": "newOwner",
          "type": "address"
        }
      ],
      "name": "OwnershipTransferred",
      "type": "event"
    },
    {
      "anonymous": false,
      "inputs": [
        {
          "indexed": true,
          "internalType": "address",
          "name": "operator",
          "type": "address"
        },
        {
          "indexed": true,
          "internalType": "address",
          "name": "from",
          "type": "address"
        },
        {
          "indexed": true,
          "internalType": "address",
          "name": "to",
          "type": "address"
        },
        {
          "indexed": false,
          "internalType": "uint256[]",
          "name": "ids",
          "type": "uint256[]"
        },
        {
          "indexed": false,
          "internalType": "uint256[]",
          "name": "values",
          "type": "uint256[]"
        }
      ],
      "name": "TransferBatch",
      "type": "event"
    },
    {
      "anonymous": false,
      "inputs": [
        {
          "indexed": true,
          "internalType": "address",
          "name": "operator",
          "type": "address"
        },
        {
          "indexed": true,
          "internalType": "address",
          "name": "from",
          "type": "address"
        },
        {
          "indexed": true,
          "internalType": "address",
          "name": "to",
          "type": "address"
        },
        {
          "indexed": false,
          "internalType": "uint256",
          "name": "id",
          "type": "uint256"
        },
        {
          "indexed": false,
          "internalType": "uint256",
          "name": "value",
          "type": "uint256"
        }
      ],
      "name": "TransferSingle",
      "type": "event"
    },
    {
      "anonymous": false,
      "inputs": [
        {
          "indexed": false,
          "internalType": "string",
          "name": "value",
          "type": "string"
        },
        {
          "indexed": true,
          "internalType": "uint256",
          "name": "id",
          "type": "uint256"
        }
      ],
      "name": "URI",
      "type": "event"
    },
    {
      "inputs": [],
      "name": "CALCULATOR",
      "outputs": [
        {
          "internalType": "uint256",
          "name": "",
          "type": "uint256"
        }
      ],
      "stateMutability": "view",
      "type": "function"
    },
    {
      "inputs": [],
      "name": "ERASER",
      "outputs": [
        {
          "internalType": "uint256",
          "name": "",
          "type": "uint256"
        }
      ],
      "stateMutability": "view",
      "type": "function"
    },
    {
      "inputs": [],
      "name": "GLUE",
      "outputs": [
        {
          "internalType": "uint256",
          "name": "",
          "type": "uint256"
        }
      ],
      "stateMutability": "view",
      "type": "function"
    },
    {
      "inputs": [],
      "name": "MARKER",
      "outputs": [
        {
          "internalType": "uint256",
          "name": "",
          "type": "uint256"
        }
      ],
      "stateMutability": "view",
      "type": "function"
    },
    {
      "inputs": [],
      "name": "NOTEBOOK",
      "outputs": [
        {
          "internalType": "uint256",
          "name": "",
          "type": "uint256"
        }
      ],
      "stateMutability": "view",
      "type": "function"
    },
    {
      "inputs": [],
      "name": "PEN",
      "outputs": [
        {
          "internalType": "uint256",
          "name": "",
          "type": "uint256"
        }
      ],
      "stateMutability": "view",
      "type": "function"
    },
    {
      "inputs": [],
      "name": "PENCIL",
      "outputs": [
        {
          "internalType": "uint256",
          "name": "",
          "type": "uint256"
        }
      ],
      "stateMutability": "view",
      "type": "function"
    },
    {
      "inputs": [],
      "name": "RULER",
      "outputs": [
        {
          "internalType": "uint256",
          "name": "",
          "type": "uint256"
        }
      ],
      "stateMutability": "view",
      "type": "function"
    },
    {
      "inputs": [],
      "name": "SCISSORS",
      "outputs": [
        {
          "internalType": "uint256",
          "name": "",
          "type": "uint256"
        }
      ],
      "stateMutability": "view",
      "type": "function"
    },
    {
      "inputs": [],
      "name": "STAPLER",
      "outputs": [
        {
          "internalType": "uint256",
          "name": "",
          "type": "uint256"
        }
      ],
      "stateMutability": "view",
      "type": "function"
    },
    {
      "inputs": [
        {
          "internalType": "address",
          "name": "account",
          "type": "address"
        },
        {
          "internalType": "uint256",
          "name": "id",
          "type": "uint256"
        }
      ],
      "name": "balanceOf",
      "outputs": [
        {
          "internalType": "uint256",
          "name": "",
          "type": "uint256"
        }
      ],
      "stateMutability": "view",
      "type": "function"
    },
    {
      "inputs": [
        {
          "internalType": "address[]",
          "name": "accounts",
          "type": "address[]"
        },
        {
          "internalType": "uint256[]",
          "name": "ids",
          "type": "uint256[]"
        }
      ],
      "name": "balanceOfBatch",
      "outputs": [
        {
          "internalType": "uint256[]",
          "name": "",
          "type": "uint256[]"
        }
      ],
      "stateMutability": "view",
      "type": "function"
    },
    {
      "inputs": [
        {
          "internalType": "address",
          "name": "from",
          "type": "address"
        },
        {
          "internalType": "address",
          "name": "to",
          "type": "address"
        },
        {
          "internalType": "uint256[]",
          "name": "ids",
          "type": "uint256[]"
        },
        {
          "internalType": "uint256[]",
          "name": "amounts",
          "type": "uint256[]"
        },
        {
          "internalType": "bytes",
          "name": "data",
          "type": "bytes"
        }
      ],
      "name": "batchTransfer",
      "outputs": [],
      "stateMutability": "nonpayable",
      "type": "function"
    },
    {
      "inputs": [
        {
          "internalType": "address",
          "name": "account",
          "type": "address"
        },
        {
          "internalType": "address",
          "name": "operator",
          "type": "address"
        }
      ],
      "name": "isApprovedForAll",
      "outputs": [
        {
          "internalType": "bool",
          "name": "",
          "type": "bool"
        }
      ],
      "stateMutability": "view",
      "type": "function"
    },
    {
      "inputs": [
        {
          "internalType": "address",
          "name": "account",
          "type": "address"
        },
        {
          "internalType": "uint256",
          "name": "id",
          "type": "uint256"
        },
        {
          "internalType": "uint256",
          "name": "amount",
          "type": "uint256"
        },
        {
          "internalType": "bytes",
          "name": "data",
          "type": "bytes"
        }
      ],
      "name": "mint",
      "outputs": [],
      "stateMutability": "nonpayable",
      "type": "function"
    },
    {
      "inputs": [
        {
          "internalType": "address",
          "name": "to",
          "type": "address"
        },
        {
          "internalType": "uint256[]",
          "name": "ids",
          "type": "uint256[]"
        },
        {
          "internalType": "uint256[]",
          "name": "amounts",
          "type": "uint256[]"
        },
        {
          "internalType": "bytes",
          "name": "data",
          "type": "bytes"
        }
      ],
      "name": "mintBatch",
      "outputs": [],
      "stateMutability": "nonpayable",
      "type": "function"
    },
    {
      "inputs": [],
      "name": "owner",
      "outputs": [
        {
          "internalType": "address",
          "name": "",
          "type": "address"
        }
      ],
      "stateMutability": "view",
      "type": "function"
    },
    {
      "inputs": [],
      "name": "renounceOwnership",
      "outputs": [],
      "stateMutability": "nonpayable",
      "type": "function"
    },
    {
      "inputs": [
        {
          "internalType": "address",
          "name": "from",
          "type": "address"
        },
        {
          "internalType": "address",
          "name": "to",
          "type": "address"
        },
        {
          "internalType": "uint256[]",
          "name": "ids",
          "type": "uint256[]"
        },
        {
          "internalType": "uint256[]",
          "name": "values",
          "type": "uint256[]"
        },
        {
          "internalType": "bytes",
          "name": "data",
          "type": "bytes"
        }
      ],
      "name": "safeBatchTransferFrom",
      "outputs": [],
      "stateMutability": "nonpayable",
      "type": "function"
    },
    {
      "inputs": [
        {
          "internalType": "address",
          "name": "from",
          "type": "address"
        },
        {
          "internalType": "address",
          "name": "to",
          "type": "address"
        },
        {
          "internalType": "uint256",
          "name": "id",
          "type": "uint256"
        },
        {
          "internalType": "uint256",
          "name": "value",
          "type": "uint256"
        },
        {
          "internalType": "bytes",
          "name": "data",
          "type": "bytes"
        }
      ],
      "name": "safeTransferFrom",
      "outputs": [],
      "stateMutability": "nonpayable",
      "type": "function"
    },
    {
      "inputs": [
        {
          "internalType": "address",
          "name": "operator",
          "type": "address"
        },
        {
          "internalType": "bool",
          "name": "approved",
          "type": "bool"
        }
      ],
      "name": "setApprovalForAll",
      "outputs": [],
      "stateMutability": "nonpayable",
      "type": "function"
    },
    {
      "inputs": [
        {
          "internalType": "uint256",
          "name": "tokenId",
          "type": "uint256"
        },
        {
          "internalType": "string",
          "name": "tokenURI",
          "type": "string"
        }
      ],
      "name": "setTokenURI",
      "outputs": [],
      "stateMutability": "nonpayable",
      "type": "function"
    },
    {
      "inputs": [
        {
          "internalType": "string",
          "name": "newuri",
          "type": "string"
        }
      ],
      "name": "setURI",
      "outputs": [],
      "stateMutability": "nonpayable",
      "type": "function"
    },
    {
      "inputs": [
        {
          "internalType": "bytes4",
          "name": "interfaceId",
          "type": "bytes4"
        }
      ],
      "name": "supportsInterface",
      "outputs": [
        {
          "internalType": "bool",
          "name": "",
          "type": "bool"
        }
      ],
      "stateMutability": "view",
      "type": "function"
    },
    {
      "inputs": [
        {
          "internalType": "address",
          "name": "newOwner",
          "type": "address"
        }
      ],
      "name": "transferOwnership",
      "outputs": [],
      "stateMutability": "nonpayable",
      "type": "function"
    },
    {
      "inputs": [
        {
          "internalType": "uint256",
          "name": "tokenId",
          "type": "uint256"
        }
      ],
      "name": "uri",
      "outputs": [
        {
          "internalType": "string",
          "name": "",
          "type": "string"
        }
      ],
      "stateMutability": "view",
      "type": "function"
    }
  ],
  "bytecode": "0x60806040523480156200001157600080fd5b50604051620040f8380380620040f8833981810160405281019062000037919062000c3f565b806040518060200160405280600081525062000059816200021c60201b60201c565b50600073ffffffffffffffffffffffffffffffffffffffff168173ffffffffffffffffffffffffffffffffffffffff1603620000cf5760006040517f1e4fbdf7000000000000000000000000000000000000000000000000000000008152600401620000c6919062000c82565b60405180910390fd5b620000e0816200023160201b60201c565b506000600a67ffffffffffffffff81111562000101576200010062000c9f565b5b604051908082528060200260200182016040528015620001305781602001602082028036833780820191505090505b5090506000600a67ffffffffffffffff81111562000153576200015262000c9f565b5b604051908082528060200260200182016040528015620001825781602001602082028036833780820191505090505b50905060005b600a811015620001ef5780838281518110620001a957620001a862000cce565b5b6020026020010181815250506005828281518110620001cd57620001cc62000cce565b5b6020026020010181815250508080620001e69062000d36565b91505062000188565b506200021383838360405180602001604052806000815250620002f760201b60201c565b50505062001479565b80600290816200022d919062000fc4565b5050565b6000600360009054906101000a900473ffffffffffffffffffffffffffffffffffffffff16905081600360006101000a81548173ffffffffffffffffffffffffffffffffffffffff021916908373ffffffffffffffffffffffffffffffffffffffff1602179055508173ffffffffffffffffffffffffffffffffffffffff168173ffffffffffffffffffffffffffffffffffffffff167f8be0079c531659141344cd1fd0a4f28419497f9722a3daafe3b4186f6b6457e060405160405180910390a35050565b600073ffffffffffffffffffffffffffffffffffffffff168473ffffffffffffffffffffffffffffffffffffffff16036200036c5760006040517f57f447ce00000000000000000000000000000000000000000000000000000000815260040162000363919062000c82565b60405180910390fd5b620003826000858585856200038860201b60201c565b50505050565b6200039c858585856200046160201b60201c565b600073ffffffffffffffffffffffffffffffffffffffff168473ffffffffffffffffffffffffffffffffffffffff16146200045a576000620003e36200083360201b60201c565b9050600184510362000441576000620004076000866200083b60201b90919060201c565b90506000620004216000866200083b60201b90919060201c565b9050620004398389898585896200084f60201b60201c565b505062000458565b6200045781878787878762000a1260201b60201c565b5b505b5050505050565b8051825114620004ae57815181516040517f5b059991000000000000000000000000000000000000000000000000000000008152600401620004a5929190620010bc565b60405180910390fd5b6000620004c06200083360201b60201c565b905060005b8351811015620006e4576000620004e682866200083b60201b90919060201c565b90506000620004ff83866200083b60201b90919060201c565b9050600073ffffffffffffffffffffffffffffffffffffffff168873ffffffffffffffffffffffffffffffffffffffff16146200063057600080600084815260200190815260200160002060008a73ffffffffffffffffffffffffffffffffffffffff1673ffffffffffffffffffffffffffffffffffffffff16815260200190815260200160002054905081811015620005d857888183856040517f03dee4c5000000000000000000000000000000000000000000000000000000008152600401620005cf9493929190620010e9565b60405180910390fd5b81810360008085815260200190815260200160002060008b73ffffffffffffffffffffffffffffffffffffffff1673ffffffffffffffffffffffffffffffffffffffff16815260200190815260200160002081905550505b600073ffffffffffffffffffffffffffffffffffffffff168773ffffffffffffffffffffffffffffffffffffffff1614620006ce578060008084815260200190815260200160002060008973ffffffffffffffffffffffffffffffffffffffff1673ffffffffffffffffffffffffffffffffffffffff1681526020019081526020016000206000828254620006c6919062001136565b925050819055505b505080620006dc9062000d36565b9050620004c5565b506001835103620007ab576000620007076000856200083b60201b90919060201c565b90506000620007216000856200083b60201b90919060201c565b90508573ffffffffffffffffffffffffffffffffffffffff168773ffffffffffffffffffffffffffffffffffffffff168473ffffffffffffffffffffffffffffffffffffffff167fc3d58168c5ae7397731d063d5bbf3d657854427343f4c083240f7aacaa2d0f6285856040516200079b929190620010bc565b60405180910390a450506200082c565b8373ffffffffffffffffffffffffffffffffffffffff168573ffffffffffffffffffffffffffffffffffffffff168273ffffffffffffffffffffffffffffffffffffffff167f4a39dc06d4c0dbc64b70af90fd698a233a518aa5d07e595d983b8c0526c8f7fb8686604051620008239291906200123f565b60405180910390a45b5050505050565b600033905090565b600060208202602084010151905092915050565b60008473ffffffffffffffffffffffffffffffffffffffff163b111562000a0a578373ffffffffffffffffffffffffffffffffffffffff1663f23a6e6187878686866040518663ffffffff1660e01b8152600401620008b395949392919062001314565b6020604051808303816000875af1925050508015620008f257506040513d601f19601f82011682018060405250810190620008ef9190620013d5565b60015b6200097c573d806000811462000925576040519150601f19603f3d011682016040523d82523d6000602084013e6200092a565b606091505b5060008151036200097457846040517f57f447ce0000000000000000000000000000000000000000000000000000000081526004016200096b919062000c82565b60405180910390fd5b805160208201fd5b63f23a6e6160e01b7bffffffffffffffffffffffffffffffffffffffffffffffffffffffff1916817bffffffffffffffffffffffffffffffffffffffffffffffffffffffff19161462000a0857846040517f57f447ce000000000000000000000000000000000000000000000000000000008152600401620009ff919062000c82565b60405180910390fd5b505b505050505050565b60008473ffffffffffffffffffffffffffffffffffffffff163b111562000bcd578373ffffffffffffffffffffffffffffffffffffffff1663bc197c8187878686866040518663ffffffff1660e01b815260040162000a7695949392919062001407565b6020604051808303816000875af192505050801562000ab557506040513d601f19601f8201168201806040525081019062000ab29190620013d5565b60015b62000b3f573d806000811462000ae8576040519150601f19603f3d011682016040523d82523d6000602084013e62000aed565b606091505b50600081510362000b3757846040517f57f447ce00000000000000000000000000000000000000000000000000000000815260040162000b2e919062000c82565b60405180910390fd5b805160208201fd5b63bc197c8160e01b7bffffffffffffffffffffffffffffffffffffffffffffffffffffffff1916817bffffffffffffffffffffffffffffffffffffffffffffffffffffffff19161462000bcb57846040517f57f447ce00000000000000000000000000000000000000000000000000000000815260040162000bc2919062000c82565b60405180910390fd5b505b505050505050565b600080fd5b600073ffffffffffffffffffffffffffffffffffffffff82169050919050565b600062000c078262000bda565b9050919050565b62000c198162000bfa565b811462000c2557600080fd5b50565b60008151905062000c398162000c0e565b92915050565b60006020828403121562000c585762000c5762000bd5565b5b600062000c688482850162000c28565b91505092915050565b62000c7c8162000bfa565b82525050565b600060208201905062000c99600083018462000c71565b92915050565b7f4e487b7100000000000000000000000000000000000000000000000000000000600052604160045260246000fd5b7f4e487b7100000000000000000000000000000000000000000000000000000000600052603260045260246000fd5b7f4e487b7100000000000000000000000000000000000000000000000000000000600052601160045260246000fd5b6000819050919050565b600062000d438262000d2c565b91507fffffffffffffffffffffffffffffffffffffffffffffffffffffffffffffffff820362000d785762000d7762000cfd565b5b600182019050919050565b600081519050919050565b7f4e487b7100000000000000000000000000000000000000000000000000000000600052602260045260246000fd5b6000600282049050600182168062000dd657607f821691505b60208210810362000dec5762000deb62000d8e565b5b50919050565b60008190508160005260206000209050919050565b60006020601f8301049050919050565b600082821b905092915050565b60006008830262000e567fffffffffffffffffffffffffffffffffffffffffffffffffffffffffffffffff8262000e17565b62000e62868362000e17565b95508019841693508086168417925050509392505050565b6000819050919050565b600062000ea562000e9f62000e998462000d2c565b62000e7a565b62000d2c565b9050919050565b6000819050919050565b62000ec18362000e84565b62000ed962000ed08262000eac565b84845462000e24565b825550505050565b600090565b62000ef062000ee1565b62000efd81848462000eb6565b505050565b5b8181101562000f255762000f1960008262000ee6565b60018101905062000f03565b5050565b601f82111562000f745762000f3e8162000df2565b62000f498462000e07565b8101602085101562000f59578190505b62000f7162000f688562000e07565b83018262000f02565b50505b505050565b600082821c905092915050565b600062000f996000198460080262000f79565b1980831691505092915050565b600062000fb4838362000f86565b9150826002028217905092915050565b62000fcf8262000d83565b67ffffffffffffffff81111562000feb5762000fea62000c9f565b5b62000ff7825462000dbd565b6200100482828562000f29565b600060209050601f8311600181146200103c576000841562001027578287015190505b62001033858262000fa6565b865550620010a3565b601f1984166200104c8662000df2565b60005b8281101562001076578489015182556001820191506020850194506020810190506200104f565b8683101562001096578489015162001092601f89168262000f86565b8355505b6001600288020188555050505b505050505050565b620010b68162000d2c565b82525050565b6000604082019050620010d36000830185620010ab565b620010e26020830184620010ab565b9392505050565b600060808201905062001100600083018762000c71565b6200110f6020830186620010ab565b6200111e6040830185620010ab565b6200112d6060830184620010ab565b95945050505050565b6000620011438262000d2c565b9150620011508362000d2c565b92508282019050808211156200116b576200116a62000cfd565b5b92915050565b600081519050919050565b600082825260208201905092915050565b6000819050602082019050919050565b620011a88162000d2c565b82525050565b6000620011bc83836200119d565b60208301905092915050565b6000602082019050919050565b6000620011e28262001171565b620011ee81856200117c565b9350620011fb836200118d565b8060005b8381101562001232578151620012168882620011ae565b97506200122383620011c8565b925050600181019050620011ff565b5085935050505092915050565b600060408201905081810360008301526200125b8185620011d5565b90508181036020830152620012718184620011d5565b90509392505050565b600081519050919050565b600082825260208201905092915050565b60005b83811015620012b657808201518184015260208101905062001299565b60008484015250505050565b6000601f19601f8301169050919050565b6000620012e0826200127a565b620012ec818562001285565b9350620012fe81856020860162001296565b6200130981620012c2565b840191505092915050565b600060a0820190506200132b600083018862000c71565b6200133a602083018762000c71565b620013496040830186620010ab565b620013586060830185620010ab565b81810360808301526200136c8184620012d3565b90509695505050505050565b60007fffffffff0000000000000000000000000000000000000000000000000000000082169050919050565b620013af8162001378565b8114620013bb57600080fd5b50565b600081519050620013cf81620013a4565b92915050565b600060208284031215620013ee57620013ed62000bd5565b5b6000620013fe84828501620013be565b91505092915050565b600060a0820190506200141e600083018862000c71565b6200142d602083018762000c71565b8181036040830152620014418186620011d5565b90508181036060830152620014578185620011d5565b905081810360808301526200146d8184620012d3565b90509695505050505050565b612c6f80620014896000396000f3fe608060405234801561001057600080fd5b506004361061018d5760003560e01c8063731133e9116100de578063a22cb46511610097578063b6416a3611610071578063b6416a361461044c578063e985e9c51461046a578063f242432a1461049a578063f2fde38b146104b65761018d565b8063a22cb465146103f6578063b2cf2f1614610412578063b357a0281461042e5761018d565b8063731133e91461034457806375fe8519146103605780637edfa6c91461037e5780638da5cb5b1461039c5780639f380a27146103ba578063a229a178146103d85761018d565b8063162094c41161014b5780634e1273f4116101255780634e1273f4146102ce5780635478a4e8146102fe5780635b6b57ab1461031c578063715018a61461033a5761018d565b8063162094c41461027a5780631f7fdffa146102965780632eb2c2d6146102b25761018d565b8062fdd58e1461019257806301ffc9a7146101c257806302fe5305146101f2578063032f4bfb1461020e5780630e89341c1461022c5780630f6027c51461025c575b600080fd5b6101ac60048036038101906101a79190611b51565b6104d2565b6040516101b99190611ba0565b60405180910390f35b6101dc60048036038101906101d79190611c13565b61052c565b6040516101e99190611c5b565b60405180910390f35b61020c60048036038101906102079190611dbc565b61060e565b005b610216610622565b6040516102239190611ba0565b60405180910390f35b61024660048036038101906102419190611e05565b610627565b6040516102539190611eb1565b60405180910390f35b6102646106ea565b6040516102719190611ba0565b60405180910390f35b610294600480360381019061028f9190611ed3565b6106ef565b005b6102b060048036038101906102ab9190612098565b610754565b005b6102cc60048036038101906102c79190612153565b61076e565b005b6102e860048036038101906102e391906122e5565b610816565b6040516102f5919061241b565b60405180910390f35b610306610925565b6040516103139190611ba0565b60405180910390f35b61032461092a565b6040516103319190611ba0565b60405180910390f35b61034261092f565b005b61035e6004803603810190610359919061243d565b610943565b005b61036861095d565b6040516103759190611ba0565b60405180910390f35b610386610962565b6040516103939190611ba0565b60405180910390f35b6103a4610967565b6040516103b191906124cf565b60405180910390f35b6103c2610991565b6040516103cf9190611ba0565b60405180910390f35b6103e0610996565b6040516103ed9190611ba0565b60405180910390f35b610410600480360381019061040b9190612516565b61099b565b005b61042c60048036038101906104279190612153565b6109b1565b005b6104366109c5565b6040516104439190611ba0565b60405180910390f35b6104546109ca565b6040516104619190611ba0565b60405180910390f35b610484600480360381019061047f9190612556565b6109cf565b6040516104919190611c5b565b60405180910390f35b6104b460048036038101906104af9190612596565b610a63565b005b6104d060048036038101906104cb919061262d565b610b0b565b005b600080600083815260200190815260200160002060008473ffffffffffffffffffffffffffffffffffffffff1673ffffffffffffffffffffffffffffffffffffffff16815260200190815260200160002054905092915050565b60007fd9b67a26000000000000000000000000000000000000000000000000000000007bffffffffffffffffffffffffffffffffffffffffffffffffffffffff1916827bffffffffffffffffffffffffffffffffffffffffffffffffffffffff191614806105f757507f0e89341c000000000000000000000000000000000000000000000000000000007bffffffffffffffffffffffffffffffffffffffffffffffffffffffff1916827bffffffffffffffffffffffffffffffffffffffffffffffffffffffff1916145b80610607575061060682610b91565b5b9050919050565b610616610bfb565b61061f81610c82565b50565b600281565b6060600060046000848152602001908152602001600020805461064990612689565b80601f016020809104026020016040519081016040528092919081815260200182805461067590612689565b80156106c25780601f10610697576101008083540402835291602001916106c2565b820191906000526020600020905b8154815290600101906020018083116106a557829003601f168201915b5050505050905060008151116106e0576106db83610c95565b6106e2565b805b915050919050565b600781565b6106f7610bfb565b806004600084815260200190815260200160002090816107179190612866565b50817f6bb7ff708619ba0610cba295a58592e0451dee2622938c8755667688daf3529b826040516107489190611eb1565b60405180910390a25050565b61075c610bfb565b61076884848484610d29565b50505050565b6000610778610daf565b90508073ffffffffffffffffffffffffffffffffffffffff168673ffffffffffffffffffffffffffffffffffffffff16141580156107bd57506107bb86826109cf565b155b156108015780866040517fe237d9220000000000000000000000000000000000000000000000000000000081526004016107f8929190612938565b60405180910390fd5b61080e8686868686610db7565b505050505050565b6060815183511461086257815183516040517f5b059991000000000000000000000000000000000000000000000000000000008152600401610859929190612961565b60405180910390fd5b6000835167ffffffffffffffff81111561087f5761087e611c91565b5b6040519080825280602002602001820160405280156108ad5781602001602082028036833780820191505090505b50905060005b845181101561091a576108ea6108d28287610eaf90919063ffffffff16565b6108e58387610ec390919063ffffffff16565b6104d2565b8282815181106108fd576108fc61298a565b5b60200260200101818152505080610913906129e8565b90506108b3565b508091505092915050565b600581565b600381565b610937610bfb565b6109416000610ed7565b565b61094b610bfb565b61095784848484610f9d565b50505050565b600981565b600081565b6000600360009054906101000a900473ffffffffffffffffffffffffffffffffffffffff16905090565b600481565b600181565b6109ad6109a6610daf565b8383611036565b5050565b6109be858585858561076e565b5050505050565b600681565b600881565b6000600160008473ffffffffffffffffffffffffffffffffffffffff1673ffffffffffffffffffffffffffffffffffffffff16815260200190815260200160002060008373ffffffffffffffffffffffffffffffffffffffff1673ffffffffffffffffffffffffffffffffffffffff16815260200190815260200160002060009054906101000a900460ff16905092915050565b6000610a6d610daf565b90508073ffffffffffffffffffffffffffffffffffffffff168673ffffffffffffffffffffffffffffffffffffffff1614158015610ab25750610ab086826109cf565b155b15610af65780866040517fe237d922000000000000000000000000000000000000000000000000000000008152600401610aed929190612938565b60405180910390fd5b610b0386868686866111a6565b505050505050565b610b13610bfb565b600073ffffffffffffffffffffffffffffffffffffffff168173ffffffffffffffffffffffffffffffffffffffff1603610b855760006040517f1e4fbdf7000000000000000000000000000000000000000000000000000000008152600401610b7c91906124cf565b60405180910390fd5b610b8e81610ed7565b50565b60007f01ffc9a7000000000000000000000000000000000000000000000000000000007bffffffffffffffffffffffffffffffffffffffffffffffffffffffff1916827bffffffffffffffffffffffffffffffffffffffffffffffffffffffff1916149050919050565b610c03610daf565b73ffffffffffffffffffffffffffffffffffffffff16610c21610967565b73ffffffffffffffffffffffffffffffffffffffff1614610c8057610c44610daf565b6040517f118cdaa7000000000000000000000000000000000000000000000000000000008152600401610c7791906124cf565b60405180910390fd5b565b8060029081610c919190612866565b5050565b606060028054610ca490612689565b80601f0160208091040260200160405190810160405280929190818152602001828054610cd090612689565b8015610d1d5780601f10610cf257610100808354040283529160200191610d1d565b820191906000526020600020905b815481529060010190602001808311610d0057829003601f168201915b50505050509050919050565b600073ffffffffffffffffffffffffffffffffffffffff168473ffffffffffffffffffffffffffffffffffffffff1603610d9b5760006040517f57f447ce000000000000000000000000000000000000000000000000000000008152600401610d9291906124cf565b60405180910390fd5b610da96000858585856112b1565b50505050565b600033905090565b600073ffffffffffffffffffffffffffffffffffffffff168473ffffffffffffffffffffffffffffffffffffffff1603610e295760006040517f57f447ce000000000000000000000000000000000000000000000000000000008152600401610e2091906124cf565b60405180910390fd5b600073ffffffffffffffffffffffffffffffffffffffff168573ffffffffffffffffffffffffffffffffffffffff1603610e9b5760006040517f01a83514000000000000000000000000000000000000000000000000000000008152600401610e9291906124cf565b60405180910390fd5b610ea885858585856112b1565b5050505050565b600060208202602084010151905092915050565b600060208202602084010151905092915050565b6000600360009054906101000a900473ffffffffffffffffffffffffffffffffffffffff16905081600360006101000a81548173ffffffffffffffffffffffffffffffffffffffff021916908373ffffffffffffffffffffffffffffffffffffffff1602179055508173ffffffffffffffffffffffffffffffffffffffff168173ffffffffffffffffffffffffffffffffffffffff167f8be0079c531659141344cd1fd0a4f28419497f9722a3daafe3b4186f6b6457e060405160405180910390a35050565b600073ffffffffffffffffffffffffffffffffffffffff168473ffffffffffffffffffffffffffffffffffffffff160361100f5760006040517f57f447ce00000000000000000000000000000000000000000000000000000000815260040161100691906124cf565b60405180910390fd5b60008061101c8585611363565b9150915061102e6000878484876112b1565b505050505050565b600073ffffffffffffffffffffffffffffffffffffffff168273ffffffffffffffffffffffffffffffffffffffff16036110a85760006040517fced3e10000000000000000000000000000000000000000000000000000000000815260040161109f91906124cf565b60405180910390fd5b80600160008573ffffffffffffffffffffffffffffffffffffffff1673ffffffffffffffffffffffffffffffffffffffff16815260200190815260200160002060008473ffffffffffffffffffffffffffffffffffffffff1673ffffffffffffffffffffffffffffffffffffffff16815260200190815260200160002060006101000a81548160ff0219169083151502179055508173ffffffffffffffffffffffffffffffffffffffff168373ffffffffffffffffffffffffffffffffffffffff167f17307eab39ab6107e8899845ad3d59bd9653f200f220920489ca2b5937696c31836040516111999190611c5b565b60405180910390a3505050565b600073ffffffffffffffffffffffffffffffffffffffff168473ffffffffffffffffffffffffffffffffffffffff16036112185760006040517f57f447ce00000000000000000000000000000000000000000000000000000000815260040161120f91906124cf565b60405180910390fd5b600073ffffffffffffffffffffffffffffffffffffffff168573ffffffffffffffffffffffffffffffffffffffff160361128a5760006040517f01a8351400000000000000000000000000000000000000000000000000000000815260040161128191906124cf565b60405180910390fd5b6000806112978585611363565b915091506112a887878484876112b1565b50505050505050565b6112bd85858585611393565b600073ffffffffffffffffffffffffffffffffffffffff168473ffffffffffffffffffffffffffffffffffffffff161461135c5760006112fb610daf565b9050600184510361134b57600061131c600086610ec390919063ffffffff16565b90506000611334600086610ec390919063ffffffff16565b9050611344838989858589611741565b505061135a565b6113598187878787876118f5565b5b505b5050505050565b60608060405191506001825283602083015260408201905060018152826020820152604081016040529250929050565b80518251146113dd57815181516040517f5b0599910000000000000000000000000000000000000000000000000000000081526004016113d4929190612961565b60405180910390fd5b60006113e7610daf565b905060005b83518110156115fc57600061140a8286610ec390919063ffffffff16565b905060006114218386610ec390919063ffffffff16565b9050600073ffffffffffffffffffffffffffffffffffffffff168873ffffffffffffffffffffffffffffffffffffffff161461154e57600080600084815260200190815260200160002060008a73ffffffffffffffffffffffffffffffffffffffff1673ffffffffffffffffffffffffffffffffffffffff168152602001908152602001600020549050818110156114f657888183856040517f03dee4c50000000000000000000000000000000000000000000000000000000081526004016114ed9493929190612a30565b60405180910390fd5b81810360008085815260200190815260200160002060008b73ffffffffffffffffffffffffffffffffffffffff1673ffffffffffffffffffffffffffffffffffffffff16815260200190815260200160002081905550505b600073ffffffffffffffffffffffffffffffffffffffff168773ffffffffffffffffffffffffffffffffffffffff16146115e9578060008084815260200190815260200160002060008973ffffffffffffffffffffffffffffffffffffffff1673ffffffffffffffffffffffffffffffffffffffff16815260200190815260200160002060008282546115e19190612a75565b925050819055505b5050806115f5906129e8565b90506113ec565b5060018351036116bb57600061161c600085610ec390919063ffffffff16565b90506000611634600085610ec390919063ffffffff16565b90508573ffffffffffffffffffffffffffffffffffffffff168773ffffffffffffffffffffffffffffffffffffffff168473ffffffffffffffffffffffffffffffffffffffff167fc3d58168c5ae7397731d063d5bbf3d657854427343f4c083240f7aacaa2d0f6285856040516116ac929190612961565b60405180910390a4505061173a565b8373ffffffffffffffffffffffffffffffffffffffff168573ffffffffffffffffffffffffffffffffffffffff168273ffffffffffffffffffffffffffffffffffffffff167f4a39dc06d4c0dbc64b70af90fd698a233a518aa5d07e595d983b8c0526c8f7fb8686604051611731929190612aa9565b60405180910390a45b5050505050565b60008473ffffffffffffffffffffffffffffffffffffffff163b11156118ed578373ffffffffffffffffffffffffffffffffffffffff1663f23a6e6187878686866040518663ffffffff1660e01b81526004016117a2959493929190612b35565b6020604051808303816000875af19250505080156117de57506040513d601f19601f820116820180604052508101906117db9190612ba4565b60015b611862573d806000811461180e576040519150601f19603f3d011682016040523d82523d6000602084013e611813565b606091505b50600081510361185a57846040517f57f447ce00000000000000000000000000000000000000000000000000000000815260040161185191906124cf565b60405180910390fd5b805160208201fd5b63f23a6e6160e01b7bffffffffffffffffffffffffffffffffffffffffffffffffffffffff1916817bffffffffffffffffffffffffffffffffffffffffffffffffffffffff1916146118eb57846040517f57f447ce0000000000000000000000000000000000000000000000000000000081526004016118e291906124cf565b60405180910390fd5b505b505050505050565b60008473ffffffffffffffffffffffffffffffffffffffff163b1115611aa1578373ffffffffffffffffffffffffffffffffffffffff1663bc197c8187878686866040518663ffffffff1660e01b8152600401611956959493929190612bd1565b6020604051808303816000875af192505050801561199257506040513d601f19601f8201168201806040525081019061198f9190612ba4565b60015b611a16573d80600081146119c2576040519150601f19603f3d011682016040523d82523d6000602084013e6119c7565b606091505b506000815103611a0e57846040517f57f447ce000000000000000000000000000000000000000000000000000000008152600401611a0591906124cf565b60405180910390fd5b805160208201fd5b63bc197c8160e01b7bffffffffffffffffffffffffffffffffffffffffffffffffffffffff1916817bffffffffffffffffffffffffffffffffffffffffffffffffffffffff191614611a9f57846040517f57f447ce000000000000000000000000000000000000000000000000000000008152600401611a9691906124cf565b60405180910390fd5b505b505050505050565b6000604051905090565b600080fd5b600080fd5b600073ffffffffffffffffffffffffffffffffffffffff82169050919050565b6000611ae882611abd565b9050919050565b611af881611add565b8114611b0357600080fd5b50565b600081359050611b1581611aef565b92915050565b6000819050919050565b611b2e81611b1b565b8114611b3957600080fd5b50565b600081359050611b4b81611b25565b92915050565b60008060408385031215611b6857611b67611ab3565b5b6000611b7685828601611b06565b9250506020611b8785828601611b3c565b9150509250929050565b611b9a81611b1b565b82525050565b6000602082019050611bb56000830184611b91565b92915050565b60007fffffffff0000000000000000000000000000000000000000000000000000000082169050919050565b611bf081611bbb565b8114611bfb57600080fd5b50565b600081359050611c0d81611be7565b92915050565b600060208284031215611c2957611c28611ab3565b5b6000611c3784828501611bfe565b91505092915050565b60008115159050919050565b611c5581611c40565b82525050565b6000602082019050611c706000830184611c4c565b92915050565b600080fd5b600080fd5b6000601f19601f8301169050919050565b7f4e487b7100000000000000000000000000000000000000000000000000000000600052604160045260246000fd5b611cc982611c80565b810181811067ffffffffffffffff82111715611ce857611ce7611c91565b5b80604052505050565b6000611cfb611aa9565b9050611d078282611cc0565b919050565b600067ffffffffffffffff821115611d2757611d26611c91565b5b611d3082611c80565b9050602081019050919050565b82818337600083830152505050565b6000611d5f611d5a84611d0c565b611cf1565b905082815260208101848484011115611d7b57611d7a611c7b565b5b611d86848285611d3d565b509392505050565b600082601f830112611da357611da2611c76565b5b8135611db3848260208601611d4c565b91505092915050565b600060208284031215611dd257611dd1611ab3565b5b600082013567ffffffffffffffff811115611df057611def611ab8565b5b611dfc84828501611d8e565b91505092915050565b600060208284031215611e1b57611e1a611ab3565b5b6000611e2984828501611b3c565b91505092915050565b600081519050919050565b600082825260208201905092915050565b60005b83811015611e6c578082015181840152602081019050611e51565b60008484015250505050565b6000611e8382611e32565b611e8d8185611e3d565b9350611e9d818560208601611e4e565b611ea681611c80565b840191505092915050565b60006020820190508181036000830152611ecb8184611e78565b905092915050565b60008060408385031215611eea57611ee9611ab3565b5b6000611ef885828601611b3c565b925050602083013567ffffffffffffffff811115611f1957611f18611ab8565b5b611f2585828601611d8e565b9150509250929050565b600067ffffffffffffffff821115611f4a57611f49611c91565b5b602082029050602081019050919050565b600080fd5b6000611f73611f6e84611f2f565b611cf1565b90508083825260208201905060208402830185811115611f9657611f95611f5b565b5b835b81811015611fbf5780611fab8882611b3c565b845260208401935050602081019050611f98565b5050509392505050565b600082601f830112611fde57611fdd611c76565b5b8135611fee848260208601611f60565b91505092915050565b600067ffffffffffffffff82111561201257612011611c91565b5b61201b82611c80565b9050602081019050919050565b600061203b61203684611ff7565b611cf1565b90508281526020810184848401111561205757612056611c7b565b5b612062848285611d3d565b509392505050565b600082601f83011261207f5761207e611c76565b5b813561208f848260208601612028565b91505092915050565b600080600080608085870312156120b2576120b1611ab3565b5b60006120c087828801611b06565b945050602085013567ffffffffffffffff8111156120e1576120e0611ab8565b5b6120ed87828801611fc9565b935050604085013567ffffffffffffffff81111561210e5761210d611ab8565b5b61211a87828801611fc9565b925050606085013567ffffffffffffffff81111561213b5761213a611ab8565b5b6121478782880161206a565b91505092959194509250565b600080600080600060a0868803121561216f5761216e611ab3565b5b600061217d88828901611b06565b955050602061218e88828901611b06565b945050604086013567ffffffffffffffff8111156121af576121ae611ab8565b5b6121bb88828901611fc9565b935050606086013567ffffffffffffffff8111156121dc576121db611ab8565b5b6121e888828901611fc9565b925050608086013567ffffffffffffffff81111561220957612208611ab8565b5b6122158882890161206a565b9150509295509295909350565b600067ffffffffffffffff82111561223d5761223c611c91565b5b602082029050602081019050919050565b600061226161225c84612222565b611cf1565b9050808382526020820190506020840283018581111561228457612283611f5b565b5b835b818110156122ad57806122998882611b06565b845260208401935050602081019050612286565b5050509392505050565b600082601f8301126122cc576122cb611c76565b5b81356122dc84826020860161224e565b91505092915050565b600080604083850312156122fc576122fb611ab3565b5b600083013567ffffffffffffffff81111561231a57612319611ab8565b5b612326858286016122b7565b925050602083013567ffffffffffffffff81111561234757612346611ab8565b5b61235385828601611fc9565b9150509250929050565b600081519050919050565b600082825260208201905092915050565b6000819050602082019050919050565b61239281611b1b565b82525050565b60006123a48383612389565b60208301905092915050565b6000602082019050919050565b60006123c88261235d565b6123d28185612368565b93506123dd83612379565b8060005b8381101561240e5781516123f58882612398565b9750612400836123b0565b9250506001810190506123e1565b5085935050505092915050565b6000602082019050818103600083015261243581846123bd565b905092915050565b6000806000806080858703121561245757612456611ab3565b5b600061246587828801611b06565b945050602061247687828801611b3c565b935050604061248787828801611b3c565b925050606085013567ffffffffffffffff8111156124a8576124a7611ab8565b5b6124b48782880161206a565b91505092959194509250565b6124c981611add565b82525050565b60006020820190506124e460008301846124c0565b92915050565b6124f381611c40565b81146124fe57600080fd5b50565b600081359050612510816124ea565b92915050565b6000806040838503121561252d5761252c611ab3565b5b600061253b85828601611b06565b925050602061254c85828601612501565b9150509250929050565b6000806040838503121561256d5761256c611ab3565b5b600061257b85828601611b06565b925050602061258c85828601611b06565b9150509250929050565b600080600080600060a086880312156125b2576125b1611ab3565b5b60006125c088828901611b06565b95505060206125d188828901611b06565b94505060406125e288828901611b3c565b93505060606125f388828901611b3c565b925050608086013567ffffffffffffffff81111561261457612613611ab8565b5b6126208882890161206a565b9150509295509295909350565b60006020828403121561264357612642611ab3565b5b600061265184828501611b06565b91505092915050565b7f4e487b7100000000000000000000000000000000000000000000000000000000600052602260045260246000fd5b600060028204905060018216806126a157607f821691505b6020821081036126b4576126b361265a565b5b50919050565b60008190508160005260206000209050919050565b60006020601f8301049050919050565b600082821b905092915050565b60006008830261271c7fffffffffffffffffffffffffffffffffffffffffffffffffffffffffffffffff826126df565b61272686836126df565b95508019841693508086168417925050509392505050565b6000819050919050565b600061276361275e61275984611b1b565b61273e565b611b1b565b9050919050565b6000819050919050565b61277d83612748565b6127916127898261276a565b8484546126ec565b825550505050565b600090565b6127a6612799565b6127b1818484612774565b505050565b5b818110156127d5576127ca60008261279e565b6001810190506127b7565b5050565b601f82111561281a576127eb816126ba565b6127f4846126cf565b81016020851015612803578190505b61281761280f856126cf565b8301826127b6565b50505b505050565b600082821c905092915050565b600061283d6000198460080261281f565b1980831691505092915050565b6000612856838361282c565b9150826002028217905092915050565b61286f82611e32565b67ffffffffffffffff81111561288857612887611c91565b5b6128928254612689565b61289d8282856127d9565b600060209050601f8311600181146128d057600084156128be578287015190505b6128c8858261284a565b865550612930565b601f1984166128de866126ba565b60005b82811015612906578489015182556001820191506020850194506020810190506128e1565b86831015612923578489015161291f601f89168261282c565b8355505b6001600288020188555050505b505050505050565b600060408201905061294d60008301856124c0565b61295a60208301846124c0565b9392505050565b60006040820190506129766000830185611b91565b6129836020830184611b91565b9392505050565b7f4e487b7100000000000000000000000000000000000000000000000000000000600052603260045260246000fd5b7f4e487b7100000000000000000000000000000000000000000000000000000000600052601160045260246000fd5b60006129f382611b1b565b91507fffffffffffffffffffffffffffffffffffffffffffffffffffffffffffffffff8203612a2557612a246129b9565b5b600182019050919050565b6000608082019050612a4560008301876124c0565b612a526020830186611b91565b612a5f6040830185611b91565b612a6c6060830184611b91565b95945050505050565b6000612a8082611b1b565b9150612a8b83611b1b565b9250828201905080821115612aa357612aa26129b9565b5b92915050565b60006040820190508181036000830152612ac381856123bd565b90508181036020830152612ad781846123bd565b90509392505050565b600081519050919050565b600082825260208201905092915050565b6000612b0782612ae0565b612b118185612aeb565b9350612b21818560208601611e4e565b612b2a81611c80565b840191505092915050565b600060a082019050612b4a60008301886124c0565b612b5760208301876124c0565b612b646040830186611b91565b612b716060830185611b91565b8181036080830152612b838184612afc565b90509695505050505050565b600081519050612b9e81611be7565b92915050565b600060208284031215612bba57612bb9611ab3565b5b6000612bc884828501612b8f565b91505092915050565b600060a082019050612be660008301886124c0565b612bf360208301876124c0565b8181036040830152612c0581866123bd565b90508181036060830152612c1981856123bd565b90508181036080830152612c2d8184612afc565b9050969550505050505056fea2646970667358221220bf395d3b2d6c9a0b67756bceebe9cd76858d01f18fb86304be9a9d4aba9f04d164736f6c63430008140033",
  "linkReferences": {},
  "deployedLinkReferences": {}
}